{
  "contractName": "MasterChef",
  "abi": [
    {
      "inputs": [
        {
          "internalType": "contract Token",
          "name": "_token",
          "type": "address"
        },
        {
          "internalType": "address",
          "name": "_devaddr",
          "type": "address"
        },
        {
          "internalType": "address",
          "name": "_feeAddress",
          "type": "address"
        },
        {
          "internalType": "uint256",
          "name": "_tokenPerBlock",
          "type": "uint256"
        },
        {
          "internalType": "uint256",
          "name": "_startBlock",
          "type": "uint256"
        }
      ],
      "stateMutability": "nonpayable",
      "type": "constructor"
    },
    {
      "anonymous": false,
      "inputs": [
        {
          "indexed": true,
          "internalType": "address",
          "name": "user",
          "type": "address"
        },
        {
          "indexed": true,
          "internalType": "uint256",
          "name": "pid",
          "type": "uint256"
        },
        {
          "indexed": false,
          "internalType": "uint256",
          "name": "amount",
          "type": "uint256"
        }
      ],
      "name": "Deposit",
      "type": "event"
    },
    {
      "anonymous": false,
      "inputs": [
        {
          "indexed": true,
          "internalType": "address",
          "name": "user",
          "type": "address"
        },
        {
          "indexed": true,
          "internalType": "uint256",
          "name": "pid",
          "type": "uint256"
        },
        {
          "indexed": false,
          "internalType": "uint256",
          "name": "amount",
          "type": "uint256"
        }
      ],
      "name": "EmergencyWithdraw",
      "type": "event"
    },
    {
      "anonymous": false,
      "inputs": [
        {
          "indexed": true,
          "internalType": "address",
          "name": "previousOwner",
          "type": "address"
        },
        {
          "indexed": true,
          "internalType": "address",
          "name": "newOwner",
          "type": "address"
        }
      ],
      "name": "OwnershipTransferred",
      "type": "event"
    },
    {
      "anonymous": false,
      "inputs": [
        {
          "indexed": true,
          "internalType": "address",
          "name": "user",
          "type": "address"
        },
        {
          "indexed": true,
          "internalType": "address",
          "name": "newAddress",
          "type": "address"
        }
      ],
      "name": "SetDevAddress",
      "type": "event"
    },
    {
      "anonymous": false,
      "inputs": [
        {
          "indexed": true,
          "internalType": "address",
          "name": "user",
          "type": "address"
        },
        {
          "indexed": true,
          "internalType": "address",
          "name": "newAddress",
          "type": "address"
        }
      ],
      "name": "SetFeeAddress",
      "type": "event"
    },
    {
      "anonymous": false,
      "inputs": [
        {
          "indexed": true,
          "internalType": "address",
          "name": "user",
          "type": "address"
        },
        {
          "indexed": false,
          "internalType": "uint256",
          "name": "goosePerBlock",
          "type": "uint256"
        }
      ],
      "name": "UpdateEmissionRate",
      "type": "event"
    },
    {
      "anonymous": false,
      "inputs": [
        {
          "indexed": true,
          "internalType": "address",
          "name": "user",
          "type": "address"
        },
        {
          "indexed": true,
          "internalType": "uint256",
          "name": "pid",
          "type": "uint256"
        },
        {
          "indexed": false,
          "internalType": "uint256",
          "name": "amount",
          "type": "uint256"
        }
      ],
      "name": "Withdraw",
      "type": "event"
    },
    {
      "inputs": [],
      "name": "BONUS_MULTIPLIER",
      "outputs": [
        {
          "internalType": "uint256",
          "name": "",
          "type": "uint256"
        }
      ],
      "stateMutability": "view",
      "type": "function"
    },
    {
      "inputs": [],
      "name": "devaddr",
      "outputs": [
        {
          "internalType": "address",
          "name": "",
          "type": "address"
        }
      ],
      "stateMutability": "view",
      "type": "function"
    },
    {
      "inputs": [],
      "name": "feeAddress",
      "outputs": [
        {
          "internalType": "address",
          "name": "",
          "type": "address"
        }
      ],
      "stateMutability": "view",
      "type": "function"
    },
    {
      "inputs": [],
      "name": "maxEmissionRate",
      "outputs": [
        {
          "internalType": "uint256",
          "name": "",
          "type": "uint256"
        }
      ],
      "stateMutability": "view",
      "type": "function"
    },
    {
      "inputs": [],
      "name": "owner",
      "outputs": [
        {
          "internalType": "address",
          "name": "",
          "type": "address"
        }
      ],
      "stateMutability": "view",
      "type": "function"
    },
    {
      "inputs": [
        {
          "internalType": "contract IBEP20",
          "name": "",
          "type": "address"
        }
      ],
      "name": "poolExistence",
      "outputs": [
        {
          "internalType": "bool",
          "name": "",
          "type": "bool"
        }
      ],
      "stateMutability": "view",
      "type": "function"
    },
    {
      "inputs": [
        {
          "internalType": "uint256",
          "name": "",
          "type": "uint256"
        }
      ],
      "name": "poolInfo",
      "outputs": [
        {
          "internalType": "contract IBEP20",
          "name": "lpToken",
          "type": "address"
        },
        {
          "internalType": "uint256",
          "name": "allocPoint",
          "type": "uint256"
        },
        {
          "internalType": "uint256",
          "name": "lastRewardBlock",
          "type": "uint256"
        },
        {
          "internalType": "uint256",
          "name": "accTokenPerShare",
          "type": "uint256"
        },
        {
          "internalType": "uint16",
          "name": "depositFeeBP",
          "type": "uint16"
        }
      ],
      "stateMutability": "view",
      "type": "function"
    },
    {
      "inputs": [],
      "name": "renounceOwnership",
      "outputs": [],
      "stateMutability": "nonpayable",
      "type": "function"
    },
    {
      "inputs": [],
      "name": "startBlock",
      "outputs": [
        {
          "internalType": "uint256",
          "name": "",
          "type": "uint256"
        }
      ],
      "stateMutability": "view",
      "type": "function"
    },
    {
      "inputs": [],
      "name": "token",
      "outputs": [
        {
          "internalType": "contract Token",
          "name": "",
          "type": "address"
        }
      ],
      "stateMutability": "view",
      "type": "function"
    },
    {
      "inputs": [],
      "name": "tokenPerBlock",
      "outputs": [
        {
          "internalType": "uint256",
          "name": "",
          "type": "uint256"
        }
      ],
      "stateMutability": "view",
      "type": "function"
    },
    {
      "inputs": [],
      "name": "totalAllocPoint",
      "outputs": [
        {
          "internalType": "uint256",
          "name": "",
          "type": "uint256"
        }
      ],
      "stateMutability": "view",
      "type": "function"
    },
    {
      "inputs": [
        {
          "internalType": "address",
          "name": "newOwner",
          "type": "address"
        }
      ],
      "name": "transferOwnership",
      "outputs": [],
      "stateMutability": "nonpayable",
      "type": "function"
    },
    {
      "inputs": [
        {
          "internalType": "uint256",
          "name": "",
          "type": "uint256"
        },
        {
          "internalType": "address",
          "name": "",
          "type": "address"
        }
      ],
      "name": "userInfo",
      "outputs": [
        {
          "internalType": "uint256",
          "name": "amount",
          "type": "uint256"
        },
        {
          "internalType": "uint256",
          "name": "rewardDebt",
          "type": "uint256"
        }
      ],
      "stateMutability": "view",
      "type": "function"
    },
    {
      "inputs": [],
      "name": "poolLength",
      "outputs": [
        {
          "internalType": "uint256",
          "name": "",
          "type": "uint256"
        }
      ],
      "stateMutability": "view",
      "type": "function"
    },
    {
      "inputs": [
        {
          "internalType": "uint256",
          "name": "_allocPoint",
          "type": "uint256"
        },
        {
          "internalType": "contract IBEP20",
          "name": "_lpToken",
          "type": "address"
        },
        {
          "internalType": "uint16",
          "name": "_depositFeeBP",
          "type": "uint16"
        },
        {
          "internalType": "bool",
          "name": "_withUpdate",
          "type": "bool"
        }
      ],
      "name": "add",
      "outputs": [],
      "stateMutability": "nonpayable",
      "type": "function"
    },
    {
      "inputs": [
        {
          "internalType": "uint256",
          "name": "_pid",
          "type": "uint256"
        },
        {
          "internalType": "uint256",
          "name": "_allocPoint",
          "type": "uint256"
        },
        {
          "internalType": "uint16",
          "name": "_depositFeeBP",
          "type": "uint16"
        },
        {
          "internalType": "bool",
          "name": "_withUpdate",
          "type": "bool"
        }
      ],
      "name": "set",
      "outputs": [],
      "stateMutability": "nonpayable",
      "type": "function"
    },
    {
      "inputs": [
        {
          "internalType": "uint256",
          "name": "_from",
          "type": "uint256"
        },
        {
          "internalType": "uint256",
          "name": "_to",
          "type": "uint256"
        }
      ],
      "name": "getMultiplier",
      "outputs": [
        {
          "internalType": "uint256",
          "name": "",
          "type": "uint256"
        }
      ],
      "stateMutability": "view",
      "type": "function"
    },
    {
      "inputs": [
        {
          "internalType": "uint256",
          "name": "_pid",
          "type": "uint256"
        },
        {
          "internalType": "address",
          "name": "_user",
          "type": "address"
        }
      ],
      "name": "pendingToken",
      "outputs": [
        {
          "internalType": "uint256",
          "name": "",
          "type": "uint256"
        }
      ],
      "stateMutability": "view",
      "type": "function"
    },
    {
      "inputs": [],
      "name": "massUpdatePools",
      "outputs": [],
      "stateMutability": "nonpayable",
      "type": "function"
    },
    {
      "inputs": [
        {
          "internalType": "uint256",
          "name": "_pid",
          "type": "uint256"
        }
      ],
      "name": "updatePool",
      "outputs": [],
      "stateMutability": "nonpayable",
      "type": "function"
    },
    {
      "inputs": [
        {
          "internalType": "uint256",
          "name": "_pid",
          "type": "uint256"
        },
        {
          "internalType": "uint256",
          "name": "_amount",
          "type": "uint256"
        }
      ],
      "name": "deposit",
      "outputs": [],
      "stateMutability": "nonpayable",
      "type": "function"
    },
    {
      "inputs": [
        {
          "internalType": "uint256",
          "name": "_pid",
          "type": "uint256"
        },
        {
          "internalType": "uint256",
          "name": "_amount",
          "type": "uint256"
        }
      ],
      "name": "withdraw",
      "outputs": [],
      "stateMutability": "nonpayable",
      "type": "function"
    },
    {
      "inputs": [
        {
          "internalType": "uint256",
          "name": "_pid",
          "type": "uint256"
        }
      ],
      "name": "emergencyWithdraw",
      "outputs": [],
      "stateMutability": "nonpayable",
      "type": "function"
    },
    {
      "inputs": [
        {
          "internalType": "address",
          "name": "_devaddr",
          "type": "address"
        }
      ],
      "name": "dev",
      "outputs": [],
      "stateMutability": "nonpayable",
      "type": "function"
    },
    {
      "inputs": [
        {
          "internalType": "address",
          "name": "_feeAddress",
          "type": "address"
        }
      ],
      "name": "setFeeAddress",
      "outputs": [],
      "stateMutability": "nonpayable",
      "type": "function"
    },
    {
      "inputs": [
        {
          "internalType": "uint256",
          "name": "_tokenPerBlock",
          "type": "uint256"
        }
      ],
      "name": "updateEmissionRate",
      "outputs": [],
      "stateMutability": "nonpayable",
      "type": "function"
    },
    {
      "inputs": [
        {
          "internalType": "uint256",
          "name": "_startBlock",
          "type": "uint256"
        }
      ],
      "name": "setStartBlock",
      "outputs": [],
      "stateMutability": "nonpayable",
      "type": "function"
    }
  ],
  "bytecode": "0x6080604052670de0b6b3a764000060035560006009553480156200002257600080fd5b5060405162003ca538038062003ca583398181016040528101906200004891906200025c565b620000686200005c6200014b60201b60201c565b6200015360201b60201c565b6001808190555084600260006101000a81548173ffffffffffffffffffffffffffffffffffffffff021916908373ffffffffffffffffffffffffffffffffffffffff16021790555083600460006101000a81548173ffffffffffffffffffffffffffffffffffffffff021916908373ffffffffffffffffffffffffffffffffffffffff16021790555082600660006101000a81548173ffffffffffffffffffffffffffffffffffffffff021916908373ffffffffffffffffffffffffffffffffffffffff1602179055508160058190555080600a81905550505050505062000392565b600033905090565b60008060009054906101000a900473ffffffffffffffffffffffffffffffffffffffff169050816000806101000a81548173ffffffffffffffffffffffffffffffffffffffff021916908373ffffffffffffffffffffffffffffffffffffffff1602179055508173ffffffffffffffffffffffffffffffffffffffff168173ffffffffffffffffffffffffffffffffffffffff167f8be0079c531659141344cd1fd0a4f28419497f9722a3daafe3b4186f6b6457e060405160405180910390a35050565b600081519050620002288162000344565b92915050565b6000815190506200023f816200035e565b92915050565b600081519050620002568162000378565b92915050565b600080600080600060a086880312156200027557600080fd5b600062000285888289016200022e565b9550506020620002988882890162000217565b9450506040620002ab8882890162000217565b9350506060620002be8882890162000245565b9250506080620002d18882890162000245565b9150509295509295909350565b6000620002eb826200031a565b9050919050565b6000620002ff826200031a565b9050919050565b60006200031382620002f2565b9050919050565b600073ffffffffffffffffffffffffffffffffffffffff82169050919050565b6000819050919050565b6200034f81620002de565b81146200035b57600080fd5b50565b620003698162000306565b81146200037557600080fd5b50565b62000383816200033a565b81146200038f57600080fd5b50565b61390380620003a26000396000f3fe608060405234801561001057600080fd5b50600436106101c45760003560e01c806384e82a33116100f9578063cbd258b511610097578063e2bbb15811610071578063e2bbb158146104c0578063f2fde38b146104dc578063f35e4a6e146104f8578063fc0c546a14610514576101c4565b8063cbd258b514610456578063d49e77cd14610486578063d9638422146104a4576101c4565b80638d88a90e116100d35780638d88a90e146103bb5780638da5cb5b146103d75780638dbb1e3a146103f557806393f1a40b14610425576101c4565b806384e82a33146103655780638705fcd4146103815780638aa285501461039d576101c4565b8063441a3e701161016657806351eb05a61161014057806351eb05a6146103195780635312ea8e14610335578063630b5ba114610351578063715018a61461035b576101c4565b8063441a3e70146102af57806348cd4cb1146102cb57806348e43af4146102e9576101c4565b80631526fe27116101a25780631526fe271461022157806317caf6f11461025557806341275358146102735780634198709a14610291576101c4565b8063081e3eda146101c95780630ba84cd2146101e7578063142fc58214610203575b600080fd5b6101d1610532565b6040516101de9190613534565b60405180910390f35b61020160048036038101906101fc9190612af9565b61053f565b005b61020b610660565b6040516102189190613534565b60405180910390f35b61023b60048036038101906102369190612af9565b610666565b60405161024c9594939291906132c4565b60405180910390f35b61025d6106da565b60405161026a9190613534565b60405180910390f35b61027b6106e0565b604051610288919061322e565b60405180910390f35b610299610706565b6040516102a69190613534565b60405180910390f35b6102c960048036038101906102c49190612bea565b61070c565b005b6102d36109b9565b6040516102e09190613534565b60405180910390f35b61030360048036038101906102fe9190612b4b565b6109bf565b6040516103109190613534565b60405180910390f35b610333600480360381019061032e9190612af9565b610c19565b005b61034f600480360381019061034a9190612af9565b611064565b005b61035961121a565b005b61036361124d565b005b61037f600480360381019061037a9190612b87565b6112d5565b005b61039b60048036038101906103969190612a7e565b611654565b005b6103a5611782565b6040516103b29190613534565b60405180910390f35b6103d560048036038101906103d09190612a7e565b611787565b005b6103df6118b5565b6040516103ec919061322e565b60405180910390f35b61040f600480360381019061040a9190612bea565b6118de565b60405161041c9190613534565b60405180910390f35b61043f600480360381019061043a9190612b4b565b61190e565b60405161044d92919061354f565b60405180910390f35b610470600480360381019061046b9190612ad0565b61193f565b60405161047d91906132a9565b60405180910390f35b61048e61195f565b60405161049b919061322e565b60405180910390f35b6104be60048036038101906104b99190612c26565b611985565b005b6104da60048036038101906104d59190612bea565b611b8d565b005b6104f660048036038101906104f19190612a7e565b612082565b005b610512600480360381019061050d9190612af9565b61217a565b005b61051c6122be565b6040516105299190613317565b60405180910390f35b6000600780549050905090565b6105476122e4565b73ffffffffffffffffffffffffffffffffffffffff166105656118b5565b73ffffffffffffffffffffffffffffffffffffffff16146105bb576040517f08c379a00000000000000000000000000000000000000000000000000000000081526004016105b290613454565b60405180910390fd5b600354811115610600576040517f08c379a00000000000000000000000000000000000000000000000000000000081526004016105f7906133d4565b60405180910390fd5b61060861121a565b806005819055503373ffffffffffffffffffffffffffffffffffffffff167fe2492e003bbe8afa53088b406f0c1cb5d9e280370fc72a74cf116ffd343c4053826040516106559190613534565b60405180910390a250565b60035481565b6007818154811061067657600080fd5b90600052602060002090600502016000915090508060000160009054906101000a900473ffffffffffffffffffffffffffffffffffffffff16908060010154908060020154908060030154908060040160009054906101000a900461ffff16905085565b60095481565b600660009054906101000a900473ffffffffffffffffffffffffffffffffffffffff1681565b60055481565b60026001541415610752576040517f08c379a0000000000000000000000000000000000000000000000000000000008152600401610749906134f4565b60405180910390fd5b6002600181905550600060078381548110610796577f4e487b7100000000000000000000000000000000000000000000000000000000600052603260045260246000fd5b9060005260206000209060050201905060006008600085815260200190815260200160002060003373ffffffffffffffffffffffffffffffffffffffff1673ffffffffffffffffffffffffffffffffffffffff16815260200190815260200160002090508281600001541015610841576040517f08c379a000000000000000000000000000000000000000000000000000000000815260040161083890613494565b60405180910390fd5b61084a84610c19565b6000610894826001015461088664e8d4a51000610878876003015487600001546122ec90919063ffffffff16565b61230290919063ffffffff16565b61231890919063ffffffff16565b905060008111156108aa576108a9338261232e565b5b6000841115610922576108ca84836000015461231890919063ffffffff16565b826000018190555061092133858560000160009054906101000a900473ffffffffffffffffffffffffffffffffffffffff1673ffffffffffffffffffffffffffffffffffffffff166125959092919063ffffffff16565b5b61095464e8d4a51000610946856003015485600001546122ec90919063ffffffff16565b61230290919063ffffffff16565b8260010181905550843373ffffffffffffffffffffffffffffffffffffffff167ff279e6a1f5e320cca91135676d9cb6e44ca8a08c0b88342bcdb1144f6511b568866040516109a39190613534565b60405180910390a3505050600180819055505050565b600a5481565b600080600784815481106109fc577f4e487b7100000000000000000000000000000000000000000000000000000000600052603260045260246000fd5b9060005260206000209060050201905060006008600086815260200190815260200160002060008573ffffffffffffffffffffffffffffffffffffffff1673ffffffffffffffffffffffffffffffffffffffff168152602001908152602001600020905060008260030154905060008360000160009054906101000a900473ffffffffffffffffffffffffffffffffffffffff1673ffffffffffffffffffffffffffffffffffffffff166370a08231306040518263ffffffff1660e01b8152600401610ac8919061322e565b60206040518083038186803b158015610ae057600080fd5b505afa158015610af4573d6000803e3d6000fd5b505050506040513d601f19601f82011682018060405250810190610b189190612b22565b9050836002015443118015610b2e575060008114155b15610bc9576000610b438560020154436118de565b90506000610b86600954610b788860010154610b6a600554876122ec90919063ffffffff16565b6122ec90919063ffffffff16565b61230290919063ffffffff16565b9050610bc4610bb584610ba764e8d4a51000856122ec90919063ffffffff16565b61230290919063ffffffff16565b8561261b90919063ffffffff16565b935050505b610c0d8360010154610bff64e8d4a51000610bf18688600001546122ec90919063ffffffff16565b61230290919063ffffffff16565b61231890919063ffffffff16565b94505050505092915050565b600060078281548110610c55577f4e487b7100000000000000000000000000000000000000000000000000000000600052603260045260246000fd5b9060005260206000209060050201905080600201544311610c765750611061565b60008160000160009054906101000a900473ffffffffffffffffffffffffffffffffffffffff1673ffffffffffffffffffffffffffffffffffffffff166370a08231306040518263ffffffff1660e01b8152600401610cd5919061322e565b60206040518083038186803b158015610ced57600080fd5b505afa158015610d01573d6000803e3d6000fd5b505050506040513d601f19601f82011682018060405250810190610d259190612b22565b90506000811480610d3a575060008260010154145b15610d4f574382600201819055505050611061565b6000600260009054906101000a900473ffffffffffffffffffffffffffffffffffffffff1673ffffffffffffffffffffffffffffffffffffffff166318160ddd6040518163ffffffff1660e01b815260040160206040518083038186803b158015610db957600080fd5b505afa158015610dcd573d6000803e3d6000fd5b505050506040513d601f19601f82011682018060405250810190610df19190612b22565b905069021e19e0c9bab24000008110610e1557438360020181905550505050611061565b6000610e258460020154436118de565b90506000610e68600954610e5a8760010154610e4c600554876122ec90919063ffffffff16565b6122ec90919063ffffffff16565b61230290919063ffffffff16565b9050600260009054906101000a900473ffffffffffffffffffffffffffffffffffffffff1673ffffffffffffffffffffffffffffffffffffffff166340c10f19600460009054906101000a900473ffffffffffffffffffffffffffffffffffffffff16610edf600a8561230290919063ffffffff16565b6040518363ffffffff1660e01b8152600401610efc929190613280565b600060405180830381600087803b158015610f1657600080fd5b505af1158015610f2a573d6000803e3d6000fd5b50505050600260009054906101000a900473ffffffffffffffffffffffffffffffffffffffff1673ffffffffffffffffffffffffffffffffffffffff166340c10f1930836040518363ffffffff1660e01b8152600401610f8b929190613280565b600060405180830381600087803b158015610fa557600080fd5b505af1158015610fb9573d6000803e3d6000fd5b505050506000610fe66064610fd86005856122ec90919063ffffffff16565b61230290919063ffffffff16565b9050610ff461dead8261232e565b611007818361231890919063ffffffff16565b91506110496110368661102864e8d4a51000866122ec90919063ffffffff16565b61230290919063ffffffff16565b876003015461261b90919063ffffffff16565b86600301819055504386600201819055505050505050505b50565b600260015414156110aa576040517f08c379a00000000000000000000000000000000000000000000000000000000081526004016110a1906134f4565b60405180910390fd5b60026001819055506000600782815481106110ee577f4e487b7100000000000000000000000000000000000000000000000000000000600052603260045260246000fd5b9060005260206000209060050201905060006008600084815260200190815260200160002060003373ffffffffffffffffffffffffffffffffffffffff1673ffffffffffffffffffffffffffffffffffffffff168152602001908152602001600020905060008160000154905060008260000181905550600082600101819055506111be33828560000160009054906101000a900473ffffffffffffffffffffffffffffffffffffffff1673ffffffffffffffffffffffffffffffffffffffff166125959092919063ffffffff16565b833373ffffffffffffffffffffffffffffffffffffffff167fbb757047c2b5f3974fe26b7c10f732e7bce710b0952a71082702781e62ae0595836040516112059190613534565b60405180910390a35050506001808190555050565b6000600780549050905060005b818110156112495761123881610c19565b80611242906137a2565b9050611227565b5050565b6112556122e4565b73ffffffffffffffffffffffffffffffffffffffff166112736118b5565b73ffffffffffffffffffffffffffffffffffffffff16146112c9576040517f08c379a00000000000000000000000000000000000000000000000000000000081526004016112c090613454565b60405180910390fd5b6112d36000612631565b565b6112dd6122e4565b73ffffffffffffffffffffffffffffffffffffffff166112fb6118b5565b73ffffffffffffffffffffffffffffffffffffffff1614611351576040517f08c379a000000000000000000000000000000000000000000000000000000000815260040161134890613454565b60405180910390fd5b8260001515600b60008373ffffffffffffffffffffffffffffffffffffffff1673ffffffffffffffffffffffffffffffffffffffff16815260200190815260200160002060009054906101000a900460ff161515146113e5576040517f08c379a00000000000000000000000000000000000000000000000000000000081526004016113dc906134b4565b60405180910390fd5b6101908361ffff16111561142e576040517f08c379a000000000000000000000000000000000000000000000000000000000815260040161142590613354565b60405180910390fd5b811561143d5761143c61121a565b5b60008473ffffffffffffffffffffffffffffffffffffffff166370a08231306040518263ffffffff1660e01b8152600401611478919061322e565b60206040518083038186803b15801561149057600080fd5b505afa1580156114a4573d6000803e3d6000fd5b505050506040513d601f19601f820116820180604052508101906114c89190612b22565b90506000600a5443116114dd57600a546114df565b435b90506114f68760095461261b90919063ffffffff16565b6009819055506001600b60008873ffffffffffffffffffffffffffffffffffffffff1673ffffffffffffffffffffffffffffffffffffffff16815260200190815260200160002060006101000a81548160ff02191690831515021790555060076040518060a001604052808873ffffffffffffffffffffffffffffffffffffffff168152602001898152602001838152602001600081526020018761ffff16815250908060018154018082558091505060019003906000526020600020906005020160009091909190915060008201518160000160006101000a81548173ffffffffffffffffffffffffffffffffffffffff021916908373ffffffffffffffffffffffffffffffffffffffff16021790555060208201518160010155604082015181600201556060820151816003015560808201518160040160006101000a81548161ffff021916908361ffff160217905550505050505050505050565b600660009054906101000a900473ffffffffffffffffffffffffffffffffffffffff1673ffffffffffffffffffffffffffffffffffffffff163373ffffffffffffffffffffffffffffffffffffffff16146116e4576040517f08c379a00000000000000000000000000000000000000000000000000000000081526004016116db906134d4565b60405180910390fd5b80600660006101000a81548173ffffffffffffffffffffffffffffffffffffffff021916908373ffffffffffffffffffffffffffffffffffffffff1602179055508073ffffffffffffffffffffffffffffffffffffffff163373ffffffffffffffffffffffffffffffffffffffff167fd44190acf9d04bdb5d3a1aafff7e6dee8b40b93dfb8c5d3f0eea4b9f4539c3f760405160405180910390a350565b600181565b600460009054906101000a900473ffffffffffffffffffffffffffffffffffffffff1673ffffffffffffffffffffffffffffffffffffffff163373ffffffffffffffffffffffffffffffffffffffff1614611817576040517f08c379a000000000000000000000000000000000000000000000000000000000815260040161180e90613414565b60405180910390fd5b80600460006101000a81548173ffffffffffffffffffffffffffffffffffffffff021916908373ffffffffffffffffffffffffffffffffffffffff1602179055508073ffffffffffffffffffffffffffffffffffffffff163373ffffffffffffffffffffffffffffffffffffffff167f618c54559e94f1499a808aad71ee8729f8e74e8c48e979616328ce493a1a52e760405160405180910390a350565b60008060009054906101000a900473ffffffffffffffffffffffffffffffffffffffff16905090565b600061190660016118f8858561231890919063ffffffff16565b6122ec90919063ffffffff16565b905092915050565b6008602052816000526040600020602052806000526040600020600091509150508060000154908060010154905082565b600b6020528060005260406000206000915054906101000a900460ff1681565b600460009054906101000a900473ffffffffffffffffffffffffffffffffffffffff1681565b61198d6122e4565b73ffffffffffffffffffffffffffffffffffffffff166119ab6118b5565b73ffffffffffffffffffffffffffffffffffffffff1614611a01576040517f08c379a00000000000000000000000000000000000000000000000000000000081526004016119f890613454565b60405180910390fd5b6101908261ffff161115611a4a576040517f08c379a0000000000000000000000000000000000000000000000000000000008152600401611a4190613434565b60405180910390fd5b8015611a5957611a5861121a565b5b611acb83611abd60078781548110611a9a577f4e487b7100000000000000000000000000000000000000000000000000000000600052603260045260246000fd5b90600052602060002090600502016001015460095461231890919063ffffffff16565b61261b90919063ffffffff16565b6009819055508260078581548110611b0c577f4e487b7100000000000000000000000000000000000000000000000000000000600052603260045260246000fd5b9060005260206000209060050201600101819055508160078581548110611b5c577f4e487b7100000000000000000000000000000000000000000000000000000000600052603260045260246000fd5b906000526020600020906005020160040160006101000a81548161ffff021916908361ffff16021790555050505050565b60026001541415611bd3576040517f08c379a0000000000000000000000000000000000000000000000000000000008152600401611bca906134f4565b60405180910390fd5b6002600181905550600060078381548110611c17577f4e487b7100000000000000000000000000000000000000000000000000000000600052603260045260246000fd5b9060005260206000209060050201905060006008600085815260200190815260200160002060003373ffffffffffffffffffffffffffffffffffffffff1673ffffffffffffffffffffffffffffffffffffffff1681526020019081526020016000209050611c8484610c19565b600081600001541115611cf3576000611cdb8260010154611ccd64e8d4a51000611cbf876003015487600001546122ec90919063ffffffff16565b61230290919063ffffffff16565b61231890919063ffffffff16565b90506000811115611cf157611cf0338261232e565b5b505b6000831115611fec5760008260000160009054906101000a900473ffffffffffffffffffffffffffffffffffffffff1673ffffffffffffffffffffffffffffffffffffffff166370a08231306040518263ffffffff1660e01b8152600401611d5b919061322e565b60206040518083038186803b158015611d7357600080fd5b505afa158015611d87573d6000803e3d6000fd5b505050506040513d601f19601f82011682018060405250810190611dab9190612b22565b9050611dfe3330868660000160009054906101000a900473ffffffffffffffffffffffffffffffffffffffff1673ffffffffffffffffffffffffffffffffffffffff166126f5909392919063ffffffff16565b6000611ebf828560000160009054906101000a900473ffffffffffffffffffffffffffffffffffffffff1673ffffffffffffffffffffffffffffffffffffffff166370a08231306040518263ffffffff1660e01b8152600401611e61919061322e565b60206040518083038186803b158015611e7957600080fd5b505afa158015611e8d573d6000803e3d6000fd5b505050506040513d601f19601f82011682018060405250810190611eb19190612b22565b61231890919063ffffffff16565b905060008460040160009054906101000a900461ffff1661ffff161115611fc9576000611f1f612710611f118760040160009054906101000a900461ffff1661ffff16856122ec90919063ffffffff16565b61230290919063ffffffff16565b9050611f92600660009054906101000a900473ffffffffffffffffffffffffffffffffffffffff16828760000160009054906101000a900473ffffffffffffffffffffffffffffffffffffffff1673ffffffffffffffffffffffffffffffffffffffff166125959092919063ffffffff16565b611fbb81611fad84876000015461261b90919063ffffffff16565b61231890919063ffffffff16565b846000018190555050611fe9565b611fe081846000015461261b90919063ffffffff16565b83600001819055505b50505b61201e64e8d4a51000612010846003015484600001546122ec90919063ffffffff16565b61230290919063ffffffff16565b8160010181905550833373ffffffffffffffffffffffffffffffffffffffff167f90890809c654f11d6e72a28fa60149770a0d11ec6c92319d6ceb2bb0a4ea1a158560405161206d9190613534565b60405180910390a35050600180819055505050565b61208a6122e4565b73ffffffffffffffffffffffffffffffffffffffff166120a86118b5565b73ffffffffffffffffffffffffffffffffffffffff16146120fe576040517f08c379a00000000000000000000000000000000000000000000000000000000081526004016120f590613454565b60405180910390fd5b600073ffffffffffffffffffffffffffffffffffffffff168173ffffffffffffffffffffffffffffffffffffffff16141561216e576040517f08c379a000000000000000000000000000000000000000000000000000000000815260040161216590613394565b60405180910390fd5b61217781612631565b50565b6121826122e4565b73ffffffffffffffffffffffffffffffffffffffff166121a06118b5565b73ffffffffffffffffffffffffffffffffffffffff16146121f6576040517f08c379a00000000000000000000000000000000000000000000000000000000081526004016121ed90613454565b60405180910390fd5b600a54431061223a576040517f08c379a000000000000000000000000000000000000000000000000000000000815260040161223190613514565b60405180910390fd5b80600a819055506000600780549050905060005b818110156122b957600a5460078281548110612293577f4e487b7100000000000000000000000000000000000000000000000000000000600052603260045260246000fd5b906000526020600020906005020160020181905550806122b2906137a2565b905061224e565b505050565b600260009054906101000a900473ffffffffffffffffffffffffffffffffffffffff1681565b600033905090565b600081836122fa9190613631565b905092915050565b600081836123109190613600565b905092915050565b60008183612326919061368b565b905092915050565b6000600260009054906101000a900473ffffffffffffffffffffffffffffffffffffffff1673ffffffffffffffffffffffffffffffffffffffff166370a08231306040518263ffffffff1660e01b815260040161238b919061322e565b60206040518083038186803b1580156123a357600080fd5b505afa1580156123b7573d6000803e3d6000fd5b505050506040513d601f19601f820116820180604052508101906123db9190612b22565b905060008183111561249d57600260009054906101000a900473ffffffffffffffffffffffffffffffffffffffff1673ffffffffffffffffffffffffffffffffffffffff1663a9059cbb85846040518363ffffffff1660e01b8152600401612444929190613280565b602060405180830381600087803b15801561245e57600080fd5b505af1158015612472573d6000803e3d6000fd5b505050506040513d601f19601f820116820180604052508101906124969190612aa7565b905061254f565b600260009054906101000a900473ffffffffffffffffffffffffffffffffffffffff1673ffffffffffffffffffffffffffffffffffffffff1663a9059cbb85856040518363ffffffff1660e01b81526004016124fa929190613280565b602060405180830381600087803b15801561251457600080fd5b505af1158015612528573d6000803e3d6000fd5b505050506040513d601f19601f8201168201806040525081019061254c9190612aa7565b90505b8061258f576040517f08c379a0000000000000000000000000000000000000000000000000000000008152600401612586906133f4565b60405180910390fd5b50505050565b6126168363a9059cbb60e01b84846040516024016125b4929190613280565b604051602081830303815290604052907bffffffffffffffffffffffffffffffffffffffffffffffffffffffff19166020820180517bffffffffffffffffffffffffffffffffffffffffffffffffffffffff838183161783525050505061277e565b505050565b6000818361262991906135aa565b905092915050565b60008060009054906101000a900473ffffffffffffffffffffffffffffffffffffffff169050816000806101000a81548173ffffffffffffffffffffffffffffffffffffffff021916908373ffffffffffffffffffffffffffffffffffffffff1602179055508173ffffffffffffffffffffffffffffffffffffffff168173ffffffffffffffffffffffffffffffffffffffff167f8be0079c531659141344cd1fd0a4f28419497f9722a3daafe3b4186f6b6457e060405160405180910390a35050565b612778846323b872dd60e01b85858560405160240161271693929190613249565b604051602081830303815290604052907bffffffffffffffffffffffffffffffffffffffffffffffffffffffff19166020820180517bffffffffffffffffffffffffffffffffffffffffffffffffffffffff838183161783525050505061277e565b50505050565b60006127e0826040518060400160405280602081526020017f5361666542455032303a206c6f772d6c6576656c2063616c6c206661696c65648152508573ffffffffffffffffffffffffffffffffffffffff166128459092919063ffffffff16565b905060008151111561284057808060200190518101906128009190612aa7565b61283f576040517f08c379a000000000000000000000000000000000000000000000000000000000815260040161283690613374565b60405180910390fd5b5b505050565b6060612854848460008561285d565b90509392505050565b6060824710156128a2576040517f08c379a0000000000000000000000000000000000000000000000000000000008152600401612899906133b4565b60405180910390fd5b6128ab85612971565b6128ea576040517f08c379a00000000000000000000000000000000000000000000000000000000081526004016128e190613474565b60405180910390fd5b6000808673ffffffffffffffffffffffffffffffffffffffff1685876040516129139190613217565b60006040518083038185875af1925050503d8060008114612950576040519150601f19603f3d011682016040523d82523d6000602084013e612955565b606091505b5091509150612965828286612984565b92505050949350505050565b600080823b905060008111915050919050565b60608315612994578290506129e4565b6000835111156129a75782518084602001fd5b816040517f08c379a00000000000000000000000000000000000000000000000000000000081526004016129db9190613332565b60405180910390fd5b9392505050565b6000813590506129fa8161385a565b92915050565b600081359050612a0f81613871565b92915050565b600081519050612a2481613871565b92915050565b600081359050612a3981613888565b92915050565b600081359050612a4e8161389f565b92915050565b600081359050612a63816138b6565b92915050565b600081519050612a78816138b6565b92915050565b600060208284031215612a9057600080fd5b6000612a9e848285016129eb565b91505092915050565b600060208284031215612ab957600080fd5b6000612ac784828501612a15565b91505092915050565b600060208284031215612ae257600080fd5b6000612af084828501612a2a565b91505092915050565b600060208284031215612b0b57600080fd5b6000612b1984828501612a54565b91505092915050565b600060208284031215612b3457600080fd5b6000612b4284828501612a69565b91505092915050565b60008060408385031215612b5e57600080fd5b6000612b6c85828601612a54565b9250506020612b7d858286016129eb565b9150509250929050565b60008060008060808587031215612b9d57600080fd5b6000612bab87828801612a54565b9450506020612bbc87828801612a2a565b9350506040612bcd87828801612a3f565b9250506060612bde87828801612a00565b91505092959194509250565b60008060408385031215612bfd57600080fd5b6000612c0b85828601612a54565b9250506020612c1c85828601612a54565b9150509250929050565b60008060008060808587031215612c3c57600080fd5b6000612c4a87828801612a54565b9450506020612c5b87828801612a54565b9350506040612c6c87828801612a3f565b9250506060612c7d87828801612a00565b91505092959194509250565b612c92816136bf565b82525050565b612ca1816136d1565b82525050565b6000612cb282613578565b612cbc818561358e565b9350612ccc81856020860161376f565b80840191505092915050565b612ce181613727565b82525050565b612cf08161374b565b82525050565b6000612d0182613583565b612d0b8185613599565b9350612d1b81856020860161376f565b612d2481613849565b840191505092915050565b6000612d3c602583613599565b91507f6164643a20696e76616c6964206465706f73697420666565206261736973207060008301527f6f696e74730000000000000000000000000000000000000000000000000000006020830152604082019050919050565b6000612da2602a83613599565b91507f5361666542455032303a204245503230206f7065726174696f6e20646964206e60008301527f6f742073756363656564000000000000000000000000000000000000000000006020830152604082019050919050565b6000612e08602683613599565b91507f4f776e61626c653a206e6577206f776e657220697320746865207a65726f206160008301527f64647265737300000000000000000000000000000000000000000000000000006020830152604082019050919050565b6000612e6e602683613599565b91507f416464726573733a20696e73756666696369656e742062616c616e636520666f60008301527f722063616c6c00000000000000000000000000000000000000000000000000006020830152604082019050919050565b6000612ed4601083613599565b91507f4d6178696d756d206578636565646564000000000000000000000000000000006000830152602082019050919050565b6000612f14602283613599565b91507f73616665546f6b656e5472616e736665723a207472616e73666572206661696c60008301527f65640000000000000000000000000000000000000000000000000000000000006020830152604082019050919050565b6000612f7a600983613599565b91507f6465763a207775743f00000000000000000000000000000000000000000000006000830152602082019050919050565b6000612fba602583613599565b91507f7365743a20696e76616c6964206465706f73697420666565206261736973207060008301527f6f696e74730000000000000000000000000000000000000000000000000000006020830152604082019050919050565b6000613020602083613599565b91507f4f776e61626c653a2063616c6c6572206973206e6f7420746865206f776e65726000830152602082019050919050565b6000613060601d83613599565b91507f416464726573733a2063616c6c20746f206e6f6e2d636f6e74726163740000006000830152602082019050919050565b60006130a0601283613599565b91507f77697468647261773a206e6f7420676f6f6400000000000000000000000000006000830152602082019050919050565b60006130e0601983613599565b91507f6e6f6e4475706c6963617465643a206475706c696361746564000000000000006000830152602082019050919050565b6000613120601883613599565b91507f736574466565416464726573733a20464f5242494444454e00000000000000006000830152602082019050919050565b6000613160601f83613599565b91507f5265656e7472616e637947756172643a207265656e7472616e742063616c6c006000830152602082019050919050565b60006131a0603883613599565b91507f4974277320746f6f206c61746520746f20706f7374706f6e65206d696e696e6760008301527f2e2049742068617320616c7265616479207374617274656400000000000000006020830152604082019050919050565b613202816136ef565b82525050565b6132118161371d565b82525050565b60006132238284612ca7565b915081905092915050565b60006020820190506132436000830184612c89565b92915050565b600060608201905061325e6000830186612c89565b61326b6020830185612c89565b6132786040830184613208565b949350505050565b60006040820190506132956000830185612c89565b6132a26020830184613208565b9392505050565b60006020820190506132be6000830184612c98565b92915050565b600060a0820190506132d96000830188612cd8565b6132e66020830187613208565b6132f36040830186613208565b6133006060830185613208565b61330d60808301846131f9565b9695505050505050565b600060208201905061332c6000830184612ce7565b92915050565b6000602082019050818103600083015261334c8184612cf6565b905092915050565b6000602082019050818103600083015261336d81612d2f565b9050919050565b6000602082019050818103600083015261338d81612d95565b9050919050565b600060208201905081810360008301526133ad81612dfb565b9050919050565b600060208201905081810360008301526133cd81612e61565b9050919050565b600060208201905081810360008301526133ed81612ec7565b9050919050565b6000602082019050818103600083015261340d81612f07565b9050919050565b6000602082019050818103600083015261342d81612f6d565b9050919050565b6000602082019050818103600083015261344d81612fad565b9050919050565b6000602082019050818103600083015261346d81613013565b9050919050565b6000602082019050818103600083015261348d81613053565b9050919050565b600060208201905081810360008301526134ad81613093565b9050919050565b600060208201905081810360008301526134cd816130d3565b9050919050565b600060208201905081810360008301526134ed81613113565b9050919050565b6000602082019050818103600083015261350d81613153565b9050919050565b6000602082019050818103600083015261352d81613193565b9050919050565b60006020820190506135496000830184613208565b92915050565b60006040820190506135646000830185613208565b6135716020830184613208565b9392505050565b600081519050919050565b600081519050919050565b600081905092915050565b600082825260208201905092915050565b60006135b58261371d565b91506135c08361371d565b9250827fffffffffffffffffffffffffffffffffffffffffffffffffffffffffffffffff038211156135f5576135f46137eb565b5b828201905092915050565b600061360b8261371d565b91506136168361371d565b9250826136265761362561381a565b5b828204905092915050565b600061363c8261371d565b91506136478361371d565b9250817fffffffffffffffffffffffffffffffffffffffffffffffffffffffffffffffff04831182151516156136805761367f6137eb565b5b828202905092915050565b60006136968261371d565b91506136a18361371d565b9250828210156136b4576136b36137eb565b5b828203905092915050565b60006136ca826136fd565b9050919050565b60008115159050919050565b60006136e8826136bf565b9050919050565b600061ffff82169050919050565b600073ffffffffffffffffffffffffffffffffffffffff82169050919050565b6000819050919050565b600061373282613739565b9050919050565b6000613744826136fd565b9050919050565b60006137568261375d565b9050919050565b6000613768826136fd565b9050919050565b60005b8381101561378d578082015181840152602081019050613772565b8381111561379c576000848401525b50505050565b60006137ad8261371d565b91507fffffffffffffffffffffffffffffffffffffffffffffffffffffffffffffffff8214156137e0576137df6137eb565b5b600182019050919050565b7f4e487b7100000000000000000000000000000000000000000000000000000000600052601160045260246000fd5b7f4e487b7100000000000000000000000000000000000000000000000000000000600052601260045260246000fd5b6000601f19601f8301169050919050565b613863816136bf565b811461386e57600080fd5b50565b61387a816136d1565b811461388557600080fd5b50565b613891816136dd565b811461389c57600080fd5b50565b6138a8816136ef565b81146138b357600080fd5b50565b6138bf8161371d565b81146138ca57600080fd5b5056fea26469706673582212203cf02a0ca7abdd16c1c0d031dcf85c80b2b2a01b3ffd41d5a58364b014de219964736f6c63430008000033",
  "immutableReferences": {},
  "source": "// SPDX-License-Identifier: MIT\npragma solidity 0.8.0;\n\nimport \"./libs/IBEP20.sol\";\nimport \"./libs/SafeBEP20.sol\";\nimport \"@openzeppelin/contracts/access/Ownable.sol\";\nimport \"@openzeppelin/contracts/security/ReentrancyGuard.sol\";\n\nimport \"./Token.sol\";\n\n// MasterChef is the master of Token. He can make Token and he is a fair guy.\n//\n// Note that it's ownable and the owner wields tremendous power. The ownership\n// will be transferred to a governance smart contract once Token is sufficiently\n// distributed and the community can show to govern itself.\n//\n// Have fun reading it. Hopefully it's bug-free. God bless.\ncontract MasterChef is Ownable, ReentrancyGuard {\n    using SafeMath for uint256;\n    using SafeBEP20 for IBEP20;\n\n    // Info of each user.\n    struct UserInfo {\n        uint256 amount; // How many LP tokens the user has provided.\n        uint256 rewardDebt; // Reward debt. See explanation below.\n        //\n        // We do some fancy math here. Basically, any point in time, the amount of TOKENs\n        // entitled to a user but is pending to be distributed is:\n        //\n        //   pending reward = (user.amount * pool.accTokenPerShare) - user.rewardDebt\n        //\n        // Whenever a user deposits or withdraws LP tokens to a pool. Here's what happens:\n        //   1. The pool's `accTokenPerShare` (and `lastRewardBlock`) gets updated.\n        //   2. User receives the pending reward sent to his/her address.\n        //   3. User's `amount` gets updated.\n        //   4. User's `rewardDebt` gets updated.\n    }\n\n    // Info of each pool.\n    struct PoolInfo {\n        IBEP20 lpToken; // Address of LP token contract.\n        uint256 allocPoint; // How many allocation points assigned to this pool. TOKENs to distribute per block.\n        uint256 lastRewardBlock; // Last block number that TOKENs distribution occurs.\n        uint256 accTokenPerShare; // Accumulated TOKENs per share, times 1e12. See below.\n        uint16 depositFeeBP; // Deposit fee in basis points\n    }\n\n    // The Token!\n    Token public token;\n    // Maximum emission rate\n    uint256 public maxEmissionRate = 1 ether;\n    // Dev address.\n    address public devaddr;\n    // TOKEN tokens created per block.\n    uint256 public tokenPerBlock;\n    // Bonus muliplier for early token makers.\n    uint256 public constant BONUS_MULTIPLIER = 1;\n    // Deposit Fee address\n    address public feeAddress;\n\n    // Info of each pool.\n    PoolInfo[] public poolInfo;\n    // Info of each user that stakes LP tokens.\n    mapping(uint256 => mapping(address => UserInfo)) public userInfo;\n    // Total allocation points. Must be the sum of all allocation points in all pools.\n    uint256 public totalAllocPoint = 0;\n    // The block number when TOKEN mining starts.\n    uint256 public startBlock;\n    //Max supply of TOKEN\n    uint256 constant MAX_TOKEN_SUPPLY = 10000 ether;\n\n    event Deposit(address indexed user, uint256 indexed pid, uint256 amount);\n    event Withdraw(address indexed user, uint256 indexed pid, uint256 amount);\n    event EmergencyWithdraw(\n        address indexed user,\n        uint256 indexed pid,\n        uint256 amount\n    );\n    event SetFeeAddress(address indexed user, address indexed newAddress);\n    event SetDevAddress(address indexed user, address indexed newAddress);\n    event UpdateEmissionRate(address indexed user, uint256 goosePerBlock);\n\n    constructor(\n        Token _token,\n        address _devaddr,\n        address _feeAddress,\n        uint256 _tokenPerBlock,\n        uint256 _startBlock\n    ) public {\n        token = _token;\n        devaddr = _devaddr;\n        feeAddress = _feeAddress;\n        tokenPerBlock = _tokenPerBlock;\n        startBlock = _startBlock;\n    }\n\n    function poolLength() external view returns (uint256) {\n        return poolInfo.length;\n    }\n\n    mapping(IBEP20 => bool) public poolExistence;\n    modifier nonDuplicated(IBEP20 _lpToken) {\n        require(poolExistence[_lpToken] == false, \"nonDuplicated: duplicated\");\n        _;\n    }\n\n    // Add a new lp to the pool. Can only be called by the owner.\n    function add(\n        uint256 _allocPoint,\n        IBEP20 _lpToken,\n        uint16 _depositFeeBP,\n        bool _withUpdate\n    ) public onlyOwner nonDuplicated(_lpToken) {\n        require(_depositFeeBP <= 400, \"add: invalid deposit fee basis points\");\n        if (_withUpdate) {\n            massUpdatePools();\n        }\n        // balanceOf check\n        // this should works fine if address is a token\n        uint256 balance = _lpToken.balanceOf(address(this));\n\n        uint256 lastRewardBlock = block.number > startBlock\n            ? block.number\n            : startBlock;\n        totalAllocPoint = totalAllocPoint.add(_allocPoint);\n        poolExistence[_lpToken] = true;\n        poolInfo.push(\n            PoolInfo({\n                lpToken: _lpToken,\n                allocPoint: _allocPoint,\n                lastRewardBlock: lastRewardBlock,\n                accTokenPerShare: 0,\n                depositFeeBP: _depositFeeBP\n            })\n        );\n    }\n\n    // Update the given pool's TOKEN allocation point and deposit fee. Can only be called by the owner.\n    function set(\n        uint256 _pid,\n        uint256 _allocPoint,\n        uint16 _depositFeeBP,\n        bool _withUpdate\n    ) public onlyOwner {\n        require(_depositFeeBP <= 400, \"set: invalid deposit fee basis points\");\n        if (_withUpdate) {\n            massUpdatePools();\n        }\n        totalAllocPoint = totalAllocPoint.sub(poolInfo[_pid].allocPoint).add(\n            _allocPoint\n        );\n        poolInfo[_pid].allocPoint = _allocPoint;\n        poolInfo[_pid].depositFeeBP = _depositFeeBP;\n    }\n\n    // Return reward multiplier over the given _from to _to block.\n    function getMultiplier(uint256 _from, uint256 _to)\n        public\n        view\n        returns (uint256)\n    {\n        return _to.sub(_from).mul(BONUS_MULTIPLIER);\n    }\n\n    // View function to see pending TOKENs on frontend.\n    function pendingToken(uint256 _pid, address _user)\n        external\n        view\n        returns (uint256)\n    {\n        PoolInfo storage pool = poolInfo[_pid];\n        UserInfo storage user = userInfo[_pid][_user];\n        uint256 accTokenPerShare = pool.accTokenPerShare;\n        uint256 lpSupply = pool.lpToken.balanceOf(address(this));\n        if (block.number > pool.lastRewardBlock && lpSupply != 0) {\n            uint256 multiplier = getMultiplier(\n                pool.lastRewardBlock,\n                block.number\n            );\n            uint256 tokenReward = multiplier\n                .mul(tokenPerBlock)\n                .mul(pool.allocPoint)\n                .div(totalAllocPoint);\n            accTokenPerShare = accTokenPerShare.add(\n                tokenReward.mul(1e12).div(lpSupply)\n            );\n        }\n        return user.amount.mul(accTokenPerShare).div(1e12).sub(user.rewardDebt);\n    }\n\n    // Update reward variables for all pools. Be careful of gas spending!\n    function massUpdatePools() public {\n        uint256 length = poolInfo.length;\n        for (uint256 pid = 0; pid < length; ++pid) {\n            updatePool(pid);\n        }\n    }\n\n    // Update reward variables of the given pool to be up-to-date.\n    function updatePool(uint256 _pid) public {\n        PoolInfo storage pool = poolInfo[_pid];\n        if (block.number <= pool.lastRewardBlock) {\n            return;\n        }\n        uint256 lpSupply = pool.lpToken.balanceOf(address(this));\n        if (lpSupply == 0 || pool.allocPoint == 0) {\n            pool.lastRewardBlock = block.number;\n            return;\n        }\n\n        uint256 currentSupply = token.totalSupply();\n\n        if (currentSupply >= MAX_TOKEN_SUPPLY) {\n            pool.lastRewardBlock = block.number;\n            return;\n        }\n        uint256 multiplier = getMultiplier(pool.lastRewardBlock, block.number);\n        uint256 tokenReward = multiplier\n            .mul(tokenPerBlock)\n            .mul(pool.allocPoint)\n            .div(totalAllocPoint);\n        token.mint(devaddr, tokenReward.div(10));\n        token.mint(address(this), tokenReward);\n\n        uint256 burnAmount = tokenReward.mul(5).div(100);\n        safeTokenTransfer(\n            0x000000000000000000000000000000000000dEaD,\n            burnAmount\n        );\n        tokenReward = tokenReward.sub(burnAmount);\n\n        pool.accTokenPerShare = pool.accTokenPerShare.add(\n            tokenReward.mul(1e12).div(lpSupply)\n        );\n        pool.lastRewardBlock = block.number;\n    }\n\n    // Deposit LP tokens to MasterChef for TOKEN allocation.\n    function deposit(uint256 _pid, uint256 _amount) public nonReentrant {\n        PoolInfo storage pool = poolInfo[_pid];\n        UserInfo storage user = userInfo[_pid][msg.sender];\n        updatePool(_pid);\n        if (user.amount > 0) {\n            uint256 pending = user\n                .amount\n                .mul(pool.accTokenPerShare)\n                .div(1e12)\n                .sub(user.rewardDebt);\n            if (pending > 0) {\n                safeTokenTransfer(msg.sender, pending);\n            }\n        }\n        if (_amount > 0) {\n            uint256 balanceBefore = pool.lpToken.balanceOf(address(this));\n            pool.lpToken.safeTransferFrom(\n                address(msg.sender),\n                address(this),\n                _amount\n            );\n            uint256 finalAmount = pool.lpToken.balanceOf(address(this)).sub(\n                balanceBefore\n            );\n            if (pool.depositFeeBP > 0) {\n                uint256 depositFee = finalAmount.mul(pool.depositFeeBP).div(\n                    10000\n                );\n                pool.lpToken.safeTransfer(feeAddress, depositFee);\n                user.amount = user.amount.add(finalAmount).sub(depositFee);\n            } else {\n                user.amount = user.amount.add(finalAmount);\n            }\n        }\n        user.rewardDebt = user.amount.mul(pool.accTokenPerShare).div(1e12);\n        emit Deposit(msg.sender, _pid, _amount);\n    }\n\n    // Withdraw LP tokens from MasterChef.\n    function withdraw(uint256 _pid, uint256 _amount) public nonReentrant {\n        PoolInfo storage pool = poolInfo[_pid];\n        UserInfo storage user = userInfo[_pid][msg.sender];\n        require(user.amount >= _amount, \"withdraw: not good\");\n        updatePool(_pid);\n        uint256 pending = user.amount.mul(pool.accTokenPerShare).div(1e12).sub(\n            user.rewardDebt\n        );\n        if (pending > 0) {\n            safeTokenTransfer(msg.sender, pending);\n        }\n        if (_amount > 0) {\n            user.amount = user.amount.sub(_amount);\n            pool.lpToken.safeTransfer(address(msg.sender), _amount);\n        }\n        user.rewardDebt = user.amount.mul(pool.accTokenPerShare).div(1e12);\n        emit Withdraw(msg.sender, _pid, _amount);\n    }\n\n    // Withdraw without caring about rewards. EMERGENCY ONLY.\n    function emergencyWithdraw(uint256 _pid) public nonReentrant {\n        PoolInfo storage pool = poolInfo[_pid];\n        UserInfo storage user = userInfo[_pid][msg.sender];\n        uint256 amount = user.amount;\n        user.amount = 0;\n        user.rewardDebt = 0;\n        pool.lpToken.safeTransfer(address(msg.sender), amount);\n        emit EmergencyWithdraw(msg.sender, _pid, amount);\n    }\n\n    // Safe token transfer function, just in case if rounding error causes pool to not have enough TOKENs.\n    function safeTokenTransfer(address _to, uint256 _amount) internal {\n        uint256 tokenBal = token.balanceOf(address(this));\n        bool transferSuccess = false;\n        if (_amount > tokenBal) {\n            transferSuccess = token.transfer(_to, tokenBal);\n        } else {\n            transferSuccess = token.transfer(_to, _amount);\n        }\n        require(transferSuccess, \"safeTokenTransfer: transfer failed\");\n    }\n\n    // Update dev address by the previous dev.\n    function dev(address _devaddr) public {\n        require(msg.sender == devaddr, \"dev: wut?\");\n        devaddr = _devaddr;\n        emit SetDevAddress(msg.sender, _devaddr);\n    }\n\n    function setFeeAddress(address _feeAddress) public {\n        require(msg.sender == feeAddress, \"setFeeAddress: FORBIDDEN\");\n        feeAddress = _feeAddress;\n        emit SetFeeAddress(msg.sender, _feeAddress);\n    }\n\n    //Pancake has to add hidden dummy pools inorder to alter the emission, here we make it simple and transparent to all.\n    function updateEmissionRate(uint256 _tokenPerBlock) public onlyOwner {\n        require(_tokenPerBlock <= maxEmissionRate, \"Maximum exceeded\");\n        massUpdatePools();\n        tokenPerBlock = _tokenPerBlock;\n        emit UpdateEmissionRate(msg.sender, _tokenPerBlock);\n    }\n\n    function setStartBlock(uint256 _startBlock) external onlyOwner {\n        require(\n            block.number < startBlock,\n            \"It's too late to postpone mining. It has already started\"\n        );\n        startBlock = _startBlock;\n        uint256 length = poolInfo.length;\n        for (uint256 pid = 0; pid < length; ++pid) {\n            poolInfo[pid].lastRewardBlock = startBlock;\n        }\n    }\n}\n",
  "sourcePath": "/Users/fungp/mock-farm-copy/farm/contracts/MasterChef.sol",
  "compiler": {
    "name": "solc",
    "version": "0.8.0+commit.c7dfd78e.Emscripten.clang"
  },
  "schemaVersion": "3.4.4",
  "updatedAt": "2022-02-06T17:05:34.366Z",
  "devdoc": {
    "kind": "dev",
    "methods": {
      "owner()": {
        "details": "Returns the address of the current owner."
      },
      "renounceOwnership()": {
        "details": "Leaves the contract without owner. It will not be possible to call `onlyOwner` functions anymore. Can only be called by the current owner. NOTE: Renouncing ownership will leave the contract without an owner, thereby removing any functionality that is only available to the owner."
      },
      "transferOwnership(address)": {
        "details": "Transfers ownership of the contract to a new account (`newOwner`). Can only be called by the current owner."
      }
    },
    "version": 1
  },
  "userdoc": {
    "kind": "user",
    "methods": {},
    "version": 1
  }
}