{
  "contractName": "Presale",
  "abi": [
    {
      "inputs": [
        {
          "internalType": "address",
          "name": "_TOKEN",
          "type": "address"
        },
        {
          "internalType": "address",
          "name": "_USDC",
          "type": "address"
        },
        {
          "internalType": "uint256",
          "name": "_startingTimestamp",
          "type": "uint256"
        }
      ],
      "stateMutability": "nonpayable",
      "type": "constructor"
    },
    {
      "anonymous": false,
      "inputs": [
        {
          "indexed": false,
          "internalType": "address",
          "name": "user",
          "type": "address"
        },
        {
          "indexed": false,
          "internalType": "uint256",
          "name": "tokens",
          "type": "uint256"
        }
      ],
      "name": "TokenBuy",
      "type": "event"
    },
    {
      "anonymous": false,
      "inputs": [
        {
          "indexed": false,
          "internalType": "address",
          "name": "user",
          "type": "address"
        },
        {
          "indexed": false,
          "internalType": "uint256",
          "name": "tokens",
          "type": "uint256"
        }
      ],
      "name": "TokenClaim",
      "type": "event"
    },
    {
      "inputs": [],
      "name": "CAP",
      "outputs": [
        {
          "internalType": "uint256",
          "name": "",
          "type": "uint256"
        }
      ],
      "stateMutability": "view",
      "type": "function"
    },
    {
      "inputs": [],
      "name": "USDCPerToken",
      "outputs": [
        {
          "internalType": "uint256",
          "name": "",
          "type": "uint256"
        }
      ],
      "stateMutability": "view",
      "type": "function"
    },
    {
      "inputs": [],
      "name": "USDCReceived",
      "outputs": [
        {
          "internalType": "uint256",
          "name": "",
          "type": "uint256"
        }
      ],
      "stateMutability": "view",
      "type": "function"
    },
    {
      "inputs": [],
      "name": "isClaimActive",
      "outputs": [
        {
          "internalType": "bool",
          "name": "",
          "type": "bool"
        }
      ],
      "stateMutability": "view",
      "type": "function"
    },
    {
      "inputs": [],
      "name": "isSaleActive",
      "outputs": [
        {
          "internalType": "bool",
          "name": "",
          "type": "bool"
        }
      ],
      "stateMutability": "view",
      "type": "function"
    },
    {
      "inputs": [],
      "name": "owner",
      "outputs": [
        {
          "internalType": "address",
          "name": "",
          "type": "address"
        }
      ],
      "stateMutability": "view",
      "type": "function"
    },
    {
      "inputs": [],
      "name": "startingTimeStamp",
      "outputs": [
        {
          "internalType": "uint256",
          "name": "",
          "type": "uint256"
        }
      ],
      "stateMutability": "view",
      "type": "function"
    },
    {
      "inputs": [
        {
          "internalType": "address",
          "name": "",
          "type": "address"
        }
      ],
      "name": "tokensOwned",
      "outputs": [
        {
          "internalType": "uint256",
          "name": "",
          "type": "uint256"
        }
      ],
      "stateMutability": "view",
      "type": "function"
    },
    {
      "inputs": [
        {
          "internalType": "address",
          "name": "",
          "type": "address"
        }
      ],
      "name": "tokensUnclaimed",
      "outputs": [
        {
          "internalType": "uint256",
          "name": "",
          "type": "uint256"
        }
      ],
      "stateMutability": "view",
      "type": "function"
    },
    {
      "inputs": [],
      "name": "totalTokensSold",
      "outputs": [
        {
          "internalType": "uint256",
          "name": "",
          "type": "uint256"
        }
      ],
      "stateMutability": "view",
      "type": "function"
    },
    {
      "inputs": [
        {
          "internalType": "uint256",
          "name": "_amount",
          "type": "uint256"
        },
        {
          "internalType": "address",
          "name": "beneficiary",
          "type": "address"
        }
      ],
      "name": "buy",
      "outputs": [],
      "stateMutability": "nonpayable",
      "type": "function"
    },
    {
      "inputs": [
        {
          "internalType": "bool",
          "name": "_isSaleActive",
          "type": "bool"
        }
      ],
      "name": "setSaleActive",
      "outputs": [],
      "stateMutability": "nonpayable",
      "type": "function"
    },
    {
      "inputs": [
        {
          "internalType": "bool",
          "name": "_isClaimActive",
          "type": "bool"
        }
      ],
      "name": "setClaimActive",
      "outputs": [],
      "stateMutability": "nonpayable",
      "type": "function"
    },
    {
      "inputs": [],
      "name": "getTokensOwned",
      "outputs": [
        {
          "internalType": "uint256",
          "name": "",
          "type": "uint256"
        }
      ],
      "stateMutability": "view",
      "type": "function"
    },
    {
      "inputs": [],
      "name": "getTokensUnclaimed",
      "outputs": [
        {
          "internalType": "uint256",
          "name": "",
          "type": "uint256"
        }
      ],
      "stateMutability": "view",
      "type": "function"
    },
    {
      "inputs": [],
      "name": "getTOKENTokensLeft",
      "outputs": [
        {
          "internalType": "uint256",
          "name": "",
          "type": "uint256"
        }
      ],
      "stateMutability": "view",
      "type": "function"
    },
    {
      "inputs": [
        {
          "internalType": "address",
          "name": "claimer",
          "type": "address"
        }
      ],
      "name": "claimTokens",
      "outputs": [],
      "stateMutability": "nonpayable",
      "type": "function"
    },
    {
      "inputs": [],
      "name": "withdrawFunds",
      "outputs": [],
      "stateMutability": "nonpayable",
      "type": "function"
    },
    {
      "inputs": [],
      "name": "withdrawUnsoldTOKEN",
      "outputs": [],
      "stateMutability": "nonpayable",
      "type": "function"
    },
    {
      "inputs": [],
      "name": "withdrawAllTOKEN",
      "outputs": [],
      "stateMutability": "nonpayable",
      "type": "function"
    }
  ],
  "bytecode": "0x6080604052600060055560016006556000600755610bb86008553480156200002657600080fd5b50604051620022283803806200222883398181016040528101906200004c919062000170565b600160008190555082600360006101000a81548173ffffffffffffffffffffffffffffffffffffffff021916908373ffffffffffffffffffffffffffffffffffffffff16021790555081600960006101000a81548173ffffffffffffffffffffffffffffffffffffffff021916908373ffffffffffffffffffffffffffffffffffffffff1602179055506001600360146101000a81548160ff02191690831515021790555033600a60006101000a81548173ffffffffffffffffffffffffffffffffffffffff021916908373ffffffffffffffffffffffffffffffffffffffff1602179055508060048190555050505062000238565b600081519050620001538162000204565b92915050565b6000815190506200016a816200021e565b92915050565b6000806000606084860312156200018657600080fd5b6000620001968682870162000142565b9350506020620001a98682870162000142565b9250506040620001bc8682870162000159565b9150509250925092565b6000620001d382620001da565b9050919050565b600073ffffffffffffffffffffffffffffffffffffffff82169050919050565b6000819050919050565b6200020f81620001c6565b81146200021b57600080fd5b50565b6200022981620001fa565b81146200023557600080fd5b50565b611fe080620002486000396000f3fe608060405234801561001057600080fd5b506004361061012b5760003560e01c806373417b09116100ad578063841718a611610071578063841718a6146102ea5780638da5cb5b14610306578063a769c2ff14610324578063df8de3e71461032e578063ec81b4831461034a5761012b565b806373417b09146102465780637deb6025146102625780637fc278031461027e578063807bf2291461029c578063816e3acb146102cc5761012b565b8063537fb4d3116100f4578063537fb4d3146101c4578063564566a8146101e257806357609d251461020057806363b201171461020a57806366fec5bb146102285761012b565b80624d4d2c1461013057806321cda7901461014e57806324600fc31461017e57806328c95784146101885780632c2edb6c146101a6575b600080fd5b610138610368565b6040516101459190611d73565b60405180910390f35b61016860048036038101906101639190611675565b61036e565b6040516101759190611d73565b60405180910390f35b610186610386565b005b61019061050f565b60405161019d9190611d73565b60405180910390f35b6101ae610515565b6040516101bb9190611d73565b60405180910390f35b6101cc61055c565b6040516101d99190611d73565b60405180910390f35b6101ea61060e565b6040516101f79190611bd6565b60405180910390f35b610208610621565b005b6102126107aa565b60405161021f9190611d73565b60405180910390f35b6102306107b0565b60405161023d9190611d73565b60405180910390f35b610260600480360381019061025b919061169e565b6107f7565b005b61027c60048036038101906102779190611719565b6108a4565b005b610286610bf3565b6040516102939190611bd6565b60405180910390f35b6102b660048036038101906102b19190611675565b610c06565b6040516102c39190611d73565b60405180910390f35b6102d4610c1e565b6040516102e19190611d73565b60405180910390f35b61030460048036038101906102ff919061169e565b610c24565b005b61030e610cd1565b60405161031b9190611b5b565b60405180910390f35b61032c610cf7565b005b61034860048036038101906103439190611675565b610e93565b005b61035261125e565b60405161035f9190611d73565b60405180910390f35b60045481565b60016020528060005260406000206000915090505481565b600a60009054906101000a900473ffffffffffffffffffffffffffffffffffffffff1673ffffffffffffffffffffffffffffffffffffffff163373ffffffffffffffffffffffffffffffffffffffff1614610416576040517f08c379a000000000000000000000000000000000000000000000000000000000815260040161040d90611d33565b60405180910390fd5b61050d33600960009054906101000a900473ffffffffffffffffffffffffffffffffffffffff1673ffffffffffffffffffffffffffffffffffffffff166370a08231306040518263ffffffff1660e01b81526004016104759190611b5b565b60206040518083038186803b15801561048d57600080fd5b505afa1580156104a1573d6000803e3d6000fd5b505050506040513d601f19601f820116820180604052508101906104c591906116f0565b600960009054906101000a900473ffffffffffffffffffffffffffffffffffffffff1673ffffffffffffffffffffffffffffffffffffffff166112649092919063ffffffff16565b565b60065481565b6000600160003373ffffffffffffffffffffffffffffffffffffffff1673ffffffffffffffffffffffffffffffffffffffff16815260200190815260200160002054905090565b6000600360009054906101000a900473ffffffffffffffffffffffffffffffffffffffff1673ffffffffffffffffffffffffffffffffffffffff166370a08231306040518263ffffffff1660e01b81526004016105b99190611b5b565b60206040518083038186803b1580156105d157600080fd5b505afa1580156105e5573d6000803e3d6000fd5b505050506040513d601f19601f8201168201806040525081019061060991906116f0565b905090565b600360149054906101000a900460ff1681565b600a60009054906101000a900473ffffffffffffffffffffffffffffffffffffffff1673ffffffffffffffffffffffffffffffffffffffff163373ffffffffffffffffffffffffffffffffffffffff16146106b1576040517f08c379a00000000000000000000000000000000000000000000000000000000081526004016106a890611d33565b60405180910390fd5b6107a833600360009054906101000a900473ffffffffffffffffffffffffffffffffffffffff1673ffffffffffffffffffffffffffffffffffffffff166370a08231306040518263ffffffff1660e01b81526004016107109190611b5b565b60206040518083038186803b15801561072857600080fd5b505afa15801561073c573d6000803e3d6000fd5b505050506040513d601f19601f8201168201806040525081019061076091906116f0565b600360009054906101000a900473ffffffffffffffffffffffffffffffffffffffff1673ffffffffffffffffffffffffffffffffffffffff166112649092919063ffffffff16565b565b60055481565b6000600260003373ffffffffffffffffffffffffffffffffffffffff1673ffffffffffffffffffffffffffffffffffffffff16815260200190815260200160002054905090565b600a60009054906101000a900473ffffffffffffffffffffffffffffffffffffffff1673ffffffffffffffffffffffffffffffffffffffff163373ffffffffffffffffffffffffffffffffffffffff1614610887576040517f08c379a000000000000000000000000000000000000000000000000000000000815260040161087e90611d33565b60405180910390fd5b80600360156101000a81548160ff02191690831515021790555050565b600260005414156108ea576040517f08c379a00000000000000000000000000000000000000000000000000000000081526004016108e190611d53565b60405180910390fd5b6002600081905550600360149054906101000a900460ff16610941576040517f08c379a000000000000000000000000000000000000000000000000000000000815260040161093890611c13565b60405180910390fd5b6000819050600061095d600654856112ea90919063ffffffff16565b905068a2a15d09519be00000846007546109779190611dc0565b11156109b8576040517f08c379a00000000000000000000000000000000000000000000000000000000081526004016109af90611c53565b60405180910390fd5b6004544210156109fd576040517f08c379a00000000000000000000000000000000000000000000000000000000081526004016109f490611c13565b60405180910390fd5b610a4c833086600960009054906101000a900473ffffffffffffffffffffffffffffffffffffffff1673ffffffffffffffffffffffffffffffffffffffff16611300909392919063ffffffff16565b610a9e81600160008573ffffffffffffffffffffffffffffffffffffffff1673ffffffffffffffffffffffffffffffffffffffff1681526020019081526020016000205461138990919063ffffffff16565b600160008473ffffffffffffffffffffffffffffffffffffffff1673ffffffffffffffffffffffffffffffffffffffff16815260200190815260200160002081905550610b3381600260008573ffffffffffffffffffffffffffffffffffffffff1673ffffffffffffffffffffffffffffffffffffffff1681526020019081526020016000205461138990919063ffffffff16565b600260008473ffffffffffffffffffffffffffffffffffffffff1673ffffffffffffffffffffffffffffffffffffffff16815260200190815260200160002081905550610b8b8160055461138990919063ffffffff16565b600581905550610ba68460075461138990919063ffffffff16565b6007819055507f0c031f45b18305561115944c48c15b7aef3fdfe9182afbf6b01c249542ec6a118382604051610bdd929190611bad565b60405180910390a1505060016000819055505050565b600360159054906101000a900460ff1681565b60026020528060005260406000206000915090505481565b60075481565b600a60009054906101000a900473ffffffffffffffffffffffffffffffffffffffff1673ffffffffffffffffffffffffffffffffffffffff163373ffffffffffffffffffffffffffffffffffffffff1614610cb4576040517f08c379a0000000000000000000000000000000000000000000000000000000008152600401610cab90611d33565b60405180910390fd5b80600360146101000a81548160ff02191690831515021790555050565b600a60009054906101000a900473ffffffffffffffffffffffffffffffffffffffff1681565b600a60009054906101000a900473ffffffffffffffffffffffffffffffffffffffff1673ffffffffffffffffffffffffffffffffffffffff163373ffffffffffffffffffffffffffffffffffffffff1614610d87576040517f08c379a0000000000000000000000000000000000000000000000000000000008152600401610d7e90611d33565b60405180910390fd5b6000600554600360009054906101000a900473ffffffffffffffffffffffffffffffffffffffff1673ffffffffffffffffffffffffffffffffffffffff166370a08231306040518263ffffffff1660e01b8152600401610de79190611b5b565b60206040518083038186803b158015610dff57600080fd5b505afa158015610e13573d6000803e3d6000fd5b505050506040513d601f19601f82011682018060405250810190610e3791906116f0565b610e419190611e47565b9050610e903382600360009054906101000a900473ffffffffffffffffffffffffffffffffffffffff1673ffffffffffffffffffffffffffffffffffffffff166112649092919063ffffffff16565b50565b600360159054906101000a900460ff16610ee2576040517f08c379a0000000000000000000000000000000000000000000000000000000008152600401610ed990611cb3565b60405180910390fd5b6000600160003373ffffffffffffffffffffffffffffffffffffffff1673ffffffffffffffffffffffffffffffffffffffff1681526020019081526020016000205411610f64576040517f08c379a0000000000000000000000000000000000000000000000000000000008152600401610f5b90611cd3565b60405180910390fd5b6000600260003373ffffffffffffffffffffffffffffffffffffffff1673ffffffffffffffffffffffffffffffffffffffff1681526020019081526020016000205411610fe6576040517f08c379a0000000000000000000000000000000000000000000000000000000008152600401610fdd90611c73565b60405180910390fd5b600260003373ffffffffffffffffffffffffffffffffffffffff1673ffffffffffffffffffffffffffffffffffffffff16815260200190815260200160002054600360009054906101000a900473ffffffffffffffffffffffffffffffffffffffff1673ffffffffffffffffffffffffffffffffffffffff166370a08231306040518263ffffffff1660e01b81526004016110819190611b5b565b60206040518083038186803b15801561109957600080fd5b505afa1580156110ad573d6000803e3d6000fd5b505050506040513d601f19601f820116820180604052508101906110d191906116f0565b1015611112576040517f08c379a000000000000000000000000000000000000000000000000000000000815260040161110990611cf3565b60405180910390fd5b61119e33600260003373ffffffffffffffffffffffffffffffffffffffff1673ffffffffffffffffffffffffffffffffffffffff16815260200190815260200160002054600360009054906101000a900473ffffffffffffffffffffffffffffffffffffffff1673ffffffffffffffffffffffffffffffffffffffff166112649092919063ffffffff16565b7ffcd6a0cf5a625280133c034863698c011fa0aefbee7f3be397f86fabd989185233600260003373ffffffffffffffffffffffffffffffffffffffff1673ffffffffffffffffffffffffffffffffffffffff1681526020019081526020016000205460405161120e929190611bad565b60405180910390a16000600260003373ffffffffffffffffffffffffffffffffffffffff1673ffffffffffffffffffffffffffffffffffffffff1681526020019081526020016000208190555050565b60085481565b6112e58363a9059cbb60e01b8484604051602401611283929190611bad565b604051602081830303815290604052907bffffffffffffffffffffffffffffffffffffffffffffffffffffffff19166020820180517bffffffffffffffffffffffffffffffffffffffffffffffffffffffff838183161783525050505061139f565b505050565b600081836112f89190611e16565b905092915050565b611383846323b872dd60e01b85858560405160240161132193929190611b76565b604051602081830303815290604052907bffffffffffffffffffffffffffffffffffffffffffffffffffffffff19166020820180517bffffffffffffffffffffffffffffffffffffffffffffffffffffffff838183161783525050505061139f565b50505050565b600081836113979190611dc0565b905092915050565b6000611401826040518060400160405280602081526020017f5361666542455032303a206c6f772d6c6576656c2063616c6c206661696c65648152508573ffffffffffffffffffffffffffffffffffffffff166114669092919063ffffffff16565b9050600081511115611461578080602001905181019061142191906116c7565b611460576040517f08c379a000000000000000000000000000000000000000000000000000000000815260040161145790611c33565b60405180910390fd5b5b505050565b6060611475848460008561147e565b90509392505050565b6060824710156114c3576040517f08c379a00000000000000000000000000000000000000000000000000000000081526004016114ba90611c93565b60405180910390fd5b6114cc85611592565b61150b576040517f08c379a000000000000000000000000000000000000000000000000000000000815260040161150290611d13565b60405180910390fd5b6000808673ffffffffffffffffffffffffffffffffffffffff1685876040516115349190611b44565b60006040518083038185875af1925050503d8060008114611571576040519150601f19603f3d011682016040523d82523d6000602084013e611576565b606091505b50915091506115868282866115a5565b92505050949350505050565b600080823b905060008111915050919050565b606083156115b557829050611605565b6000835111156115c85782518084602001fd5b816040517f08c379a00000000000000000000000000000000000000000000000000000000081526004016115fc9190611bf1565b60405180910390fd5b9392505050565b60008135905061161b81611f65565b92915050565b60008135905061163081611f7c565b92915050565b60008151905061164581611f7c565b92915050565b60008135905061165a81611f93565b92915050565b60008151905061166f81611f93565b92915050565b60006020828403121561168757600080fd5b60006116958482850161160c565b91505092915050565b6000602082840312156116b057600080fd5b60006116be84828501611621565b91505092915050565b6000602082840312156116d957600080fd5b60006116e784828501611636565b91505092915050565b60006020828403121561170257600080fd5b600061171084828501611660565b91505092915050565b6000806040838503121561172c57600080fd5b600061173a8582860161164b565b925050602061174b8582860161160c565b9150509250929050565b61175e81611e7b565b82525050565b61176d81611e8d565b82525050565b600061177e82611d8e565b6117888185611da4565b9350611798818560208601611ec3565b80840191505092915050565b60006117af82611d99565b6117b98185611daf565b93506117c9818560208601611ec3565b6117d281611f54565b840191505092915050565b60006117ea601783611daf565b91507f50726573616c6520686173206e6f7420737461727465640000000000000000006000830152602082019050919050565b600061182a602a83611daf565b91507f5361666542455032303a204245503230206f7065726174696f6e20646964206e60008301527f6f742073756363656564000000000000000000000000000000000000000000006020830152604082019050919050565b6000611890601783611daf565b91507f50726573616c65206861726463617020726561636865640000000000000000006000830152602082019050919050565b60006118d0602183611daf565b91507f557365722073686f756c64206861766520756e636c61696d656420544f4b454e60008301527f73000000000000000000000000000000000000000000000000000000000000006020830152604082019050919050565b6000611936602683611daf565b91507f416464726573733a20696e73756666696369656e742062616c616e636520666f60008301527f722063616c6c00000000000000000000000000000000000000000000000000006020830152604082019050919050565b600061199c601883611daf565b91507f436c61696d206973206e6f7420616c6c6f7765642079657400000000000000006000830152602082019050919050565b60006119dc601b83611daf565b91507f557365722073686f756c64206f776e20736f6d6520544f4b454e7300000000006000830152602082019050919050565b6000611a1c602883611daf565b91507f546865726520617265206e6f7420656e6f75676820544f4b454e7320746f207460008301527f72616e736665722e0000000000000000000000000000000000000000000000006020830152604082019050919050565b6000611a82601d83611daf565b91507f416464726573733a2063616c6c20746f206e6f6e2d636f6e74726163740000006000830152602082019050919050565b6000611ac2601483611daf565b91507f596f75277265206e6f7420746865206f776e65720000000000000000000000006000830152602082019050919050565b6000611b02601f83611daf565b91507f5265656e7472616e637947756172643a207265656e7472616e742063616c6c006000830152602082019050919050565b611b3e81611eb9565b82525050565b6000611b508284611773565b915081905092915050565b6000602082019050611b706000830184611755565b92915050565b6000606082019050611b8b6000830186611755565b611b986020830185611755565b611ba56040830184611b35565b949350505050565b6000604082019050611bc26000830185611755565b611bcf6020830184611b35565b9392505050565b6000602082019050611beb6000830184611764565b92915050565b60006020820190508181036000830152611c0b81846117a4565b905092915050565b60006020820190508181036000830152611c2c816117dd565b9050919050565b60006020820190508181036000830152611c4c8161181d565b9050919050565b60006020820190508181036000830152611c6c81611883565b9050919050565b60006020820190508181036000830152611c8c816118c3565b9050919050565b60006020820190508181036000830152611cac81611929565b9050919050565b60006020820190508181036000830152611ccc8161198f565b9050919050565b60006020820190508181036000830152611cec816119cf565b9050919050565b60006020820190508181036000830152611d0c81611a0f565b9050919050565b60006020820190508181036000830152611d2c81611a75565b9050919050565b60006020820190508181036000830152611d4c81611ab5565b9050919050565b60006020820190508181036000830152611d6c81611af5565b9050919050565b6000602082019050611d886000830184611b35565b92915050565b600081519050919050565b600081519050919050565b600081905092915050565b600082825260208201905092915050565b6000611dcb82611eb9565b9150611dd683611eb9565b9250827fffffffffffffffffffffffffffffffffffffffffffffffffffffffffffffffff03821115611e0b57611e0a611ef6565b5b828201905092915050565b6000611e2182611eb9565b9150611e2c83611eb9565b925082611e3c57611e3b611f25565b5b828204905092915050565b6000611e5282611eb9565b9150611e5d83611eb9565b925082821015611e7057611e6f611ef6565b5b828203905092915050565b6000611e8682611e99565b9050919050565b60008115159050919050565b600073ffffffffffffffffffffffffffffffffffffffff82169050919050565b6000819050919050565b60005b83811015611ee1578082015181840152602081019050611ec6565b83811115611ef0576000848401525b50505050565b7f4e487b7100000000000000000000000000000000000000000000000000000000600052601160045260246000fd5b7f4e487b7100000000000000000000000000000000000000000000000000000000600052601260045260246000fd5b6000601f19601f8301169050919050565b611f6e81611e7b565b8114611f7957600080fd5b50565b611f8581611e8d565b8114611f9057600080fd5b50565b611f9c81611eb9565b8114611fa757600080fd5b5056fea2646970667358221220ae68705b55afb4056080ff2174ac232eb70d292361b6cd4a8a9b9746ca8407c864736f6c63430008000033",
  "immutableReferences": {},
  "source": "// SPDX-License-Identifier: MIT\npragma solidity 0.8.0;\n\nimport \"@openzeppelin/contracts/utils/math/SafeMath.sol\";\nimport \"./libs/IBEP20.sol\";\nimport \"./libs/SafeBEP20.sol\";\nimport \"@openzeppelin/contracts/security/ReentrancyGuard.sol\";\n\ncontract Presale is ReentrancyGuard {\n    using SafeMath for uint256;\n    using SafeBEP20 for IBEP20;\n    // Maps user to the number of tokens owned\n    mapping(address => uint256) public tokensOwned;\n    // The number of unclaimed tokens the user has\n    mapping(address => uint256) public tokensUnclaimed;\n\n    // TOKEN token\n    IBEP20 TOKEN;\n    // Sale active\n    bool public isSaleActive;\n    // Claim active\n    bool public isClaimActive;\n    // Starting timestamp\n    uint256 public startingTimeStamp;\n    // Total TOKEN sold\n    uint256 public totalTokensSold = 0;\n    // Price of presale TOKEN, 1 USDC\n    uint256 public USDCPerToken = 1;\n    // Amount of USDC received in presale\n    uint256 public USDCReceived = 0;\n    // hard cap\n    uint256 public CAP = 3000;\n    // USDC token\n    IBEP20 USDC;\n\n    address public owner;\n\n    modifier onlyOwner() {\n        require(msg.sender == owner, \"You're not the owner\");\n        _;\n    }\n\n    event TokenBuy(address user, uint256 tokens);\n    event TokenClaim(address user, uint256 tokens);\n\n    constructor(\n        address _TOKEN,\n        address _USDC,\n        uint256 _startingTimestamp\n    ) public {\n        TOKEN = IBEP20(_TOKEN);\n        USDC = IBEP20(_USDC);\n        isSaleActive = true;\n        owner = msg.sender;\n        startingTimeStamp = _startingTimestamp;\n    }\n\n    function buy(uint256 _amount, address beneficiary) public nonReentrant {\n        require(isSaleActive, \"Presale has not started\");\n\n        address _buyer = beneficiary;\n        uint256 tokens = _amount.div(USDCPerToken);\n\n        require(\n            USDCReceived + _amount <= 3000 ether,\n            \"Presale hardcap reached\"\n        );\n        require(\n            block.timestamp >= startingTimeStamp,\n            \"Presale has not started\"\n        );\n\n        USDC.safeTransferFrom(beneficiary, address(this), _amount);\n\n        tokensOwned[_buyer] = tokensOwned[_buyer].add(tokens);\n        tokensUnclaimed[_buyer] = tokensUnclaimed[_buyer].add(tokens);\n        totalTokensSold = totalTokensSold.add(tokens);\n        USDCReceived = USDCReceived.add(_amount);\n        emit TokenBuy(beneficiary, tokens);\n    }\n\n    function setSaleActive(bool _isSaleActive) external onlyOwner {\n        isSaleActive = _isSaleActive;\n    }\n\n    function setClaimActive(bool _isClaimActive) external onlyOwner {\n        isClaimActive = _isClaimActive;\n    }\n\n    function getTokensOwned() external view returns (uint256) {\n        return tokensOwned[msg.sender];\n    }\n\n    function getTokensUnclaimed() external view returns (uint256) {\n        return tokensUnclaimed[msg.sender];\n    }\n\n    function getTOKENTokensLeft() external view returns (uint256) {\n        return TOKEN.balanceOf(address(this));\n    }\n\n    function claimTokens(address claimer) external {\n        require(isClaimActive, \"Claim is not allowed yet\");\n        require(tokensOwned[msg.sender] > 0, \"User should own some TOKENs\");\n        require(\n            tokensUnclaimed[msg.sender] > 0,\n            \"User should have unclaimed TOKENs\"\n        );\n        require(\n            TOKEN.balanceOf(address(this)) >= tokensUnclaimed[msg.sender],\n            \"There are not enough TOKENs to transfer.\"\n        );\n\n        TOKEN.safeTransfer(msg.sender, tokensUnclaimed[msg.sender]);\n        emit TokenClaim(msg.sender, tokensUnclaimed[msg.sender]);\n        tokensUnclaimed[msg.sender] = 0;\n    }\n\n    function withdrawFunds() external onlyOwner {\n        USDC.safeTransfer(msg.sender, USDC.balanceOf(address(this)));\n    }\n\n    function withdrawUnsoldTOKEN() external onlyOwner {\n        uint256 amount = TOKEN.balanceOf(address(this)) - totalTokensSold;\n        TOKEN.safeTransfer(msg.sender, amount);\n    }\n\n    function withdrawAllTOKEN() external onlyOwner {\n        TOKEN.safeTransfer(msg.sender, TOKEN.balanceOf(address(this)));\n    }\n}\n",
  "sourcePath": "/Users/fungp/mock-farm-copy/farm/contracts/Presale.sol",
  "compiler": {
    "name": "solc",
    "version": "0.8.0+commit.c7dfd78e.Emscripten.clang"
  },
  "schemaVersion": "3.4.4",
  "updatedAt": "2022-02-06T17:05:34.403Z",
  "devdoc": {
    "kind": "dev",
    "methods": {},
    "version": 1
  },
  "userdoc": {
    "kind": "user",
    "methods": {},
    "version": 1
  }
}