{
  "contractName": "TimelockM",
  "abi": [
    {
      "inputs": [
        {
          "internalType": "address",
          "name": "admin_",
          "type": "address"
        },
        {
          "internalType": "uint256",
          "name": "delay_",
          "type": "uint256"
        }
      ],
      "stateMutability": "nonpayable",
      "type": "constructor"
    },
    {
      "anonymous": false,
      "inputs": [
        {
          "indexed": true,
          "internalType": "bytes32",
          "name": "txHash",
          "type": "bytes32"
        },
        {
          "indexed": true,
          "internalType": "address",
          "name": "target",
          "type": "address"
        },
        {
          "indexed": false,
          "internalType": "uint256",
          "name": "value",
          "type": "uint256"
        },
        {
          "indexed": false,
          "internalType": "string",
          "name": "signature",
          "type": "string"
        },
        {
          "indexed": false,
          "internalType": "bytes",
          "name": "data",
          "type": "bytes"
        },
        {
          "indexed": false,
          "internalType": "uint256",
          "name": "eta",
          "type": "uint256"
        }
      ],
      "name": "CancelTransaction",
      "type": "event"
    },
    {
      "anonymous": false,
      "inputs": [
        {
          "indexed": true,
          "internalType": "bytes32",
          "name": "txHash",
          "type": "bytes32"
        },
        {
          "indexed": true,
          "internalType": "address",
          "name": "target",
          "type": "address"
        },
        {
          "indexed": false,
          "internalType": "uint256",
          "name": "value",
          "type": "uint256"
        },
        {
          "indexed": false,
          "internalType": "string",
          "name": "signature",
          "type": "string"
        },
        {
          "indexed": false,
          "internalType": "bytes",
          "name": "data",
          "type": "bytes"
        },
        {
          "indexed": false,
          "internalType": "uint256",
          "name": "eta",
          "type": "uint256"
        }
      ],
      "name": "ExecuteTransaction",
      "type": "event"
    },
    {
      "anonymous": false,
      "inputs": [
        {
          "indexed": true,
          "internalType": "address",
          "name": "newAdmin",
          "type": "address"
        }
      ],
      "name": "NewAdmin",
      "type": "event"
    },
    {
      "anonymous": false,
      "inputs": [
        {
          "indexed": true,
          "internalType": "uint256",
          "name": "newDelay",
          "type": "uint256"
        }
      ],
      "name": "NewDelay",
      "type": "event"
    },
    {
      "anonymous": false,
      "inputs": [
        {
          "indexed": true,
          "internalType": "address",
          "name": "newPendingAdmin",
          "type": "address"
        }
      ],
      "name": "NewPendingAdmin",
      "type": "event"
    },
    {
      "anonymous": false,
      "inputs": [
        {
          "indexed": true,
          "internalType": "bytes32",
          "name": "txHash",
          "type": "bytes32"
        },
        {
          "indexed": true,
          "internalType": "address",
          "name": "target",
          "type": "address"
        },
        {
          "indexed": false,
          "internalType": "uint256",
          "name": "value",
          "type": "uint256"
        },
        {
          "indexed": false,
          "internalType": "string",
          "name": "signature",
          "type": "string"
        },
        {
          "indexed": false,
          "internalType": "bytes",
          "name": "data",
          "type": "bytes"
        },
        {
          "indexed": false,
          "internalType": "uint256",
          "name": "eta",
          "type": "uint256"
        }
      ],
      "name": "QueueTransaction",
      "type": "event"
    },
    {
      "inputs": [],
      "name": "GRACE_PERIOD",
      "outputs": [
        {
          "internalType": "uint256",
          "name": "",
          "type": "uint256"
        }
      ],
      "stateMutability": "view",
      "type": "function"
    },
    {
      "inputs": [],
      "name": "MAXIMUM_DELAY",
      "outputs": [
        {
          "internalType": "uint256",
          "name": "",
          "type": "uint256"
        }
      ],
      "stateMutability": "view",
      "type": "function"
    },
    {
      "inputs": [],
      "name": "MINIMUM_DELAY",
      "outputs": [
        {
          "internalType": "uint256",
          "name": "",
          "type": "uint256"
        }
      ],
      "stateMutability": "view",
      "type": "function"
    },
    {
      "inputs": [],
      "name": "admin",
      "outputs": [
        {
          "internalType": "address",
          "name": "",
          "type": "address"
        }
      ],
      "stateMutability": "view",
      "type": "function"
    },
    {
      "inputs": [],
      "name": "admin_initialized",
      "outputs": [
        {
          "internalType": "bool",
          "name": "",
          "type": "bool"
        }
      ],
      "stateMutability": "view",
      "type": "function"
    },
    {
      "inputs": [],
      "name": "delay",
      "outputs": [
        {
          "internalType": "uint256",
          "name": "",
          "type": "uint256"
        }
      ],
      "stateMutability": "view",
      "type": "function"
    },
    {
      "inputs": [],
      "name": "pendingAdmin",
      "outputs": [
        {
          "internalType": "address",
          "name": "",
          "type": "address"
        }
      ],
      "stateMutability": "view",
      "type": "function"
    },
    {
      "inputs": [
        {
          "internalType": "bytes32",
          "name": "",
          "type": "bytes32"
        }
      ],
      "name": "queuedTransactions",
      "outputs": [
        {
          "internalType": "bool",
          "name": "",
          "type": "bool"
        }
      ],
      "stateMutability": "view",
      "type": "function"
    },
    {
      "stateMutability": "payable",
      "type": "receive"
    },
    {
      "inputs": [
        {
          "internalType": "uint256",
          "name": "delay_",
          "type": "uint256"
        }
      ],
      "name": "setDelay",
      "outputs": [],
      "stateMutability": "nonpayable",
      "type": "function"
    },
    {
      "inputs": [],
      "name": "acceptAdmin",
      "outputs": [],
      "stateMutability": "nonpayable",
      "type": "function"
    },
    {
      "inputs": [
        {
          "internalType": "address",
          "name": "pendingAdmin_",
          "type": "address"
        }
      ],
      "name": "setPendingAdmin",
      "outputs": [],
      "stateMutability": "nonpayable",
      "type": "function"
    },
    {
      "inputs": [
        {
          "internalType": "address",
          "name": "target",
          "type": "address"
        },
        {
          "internalType": "uint256",
          "name": "value",
          "type": "uint256"
        },
        {
          "internalType": "string",
          "name": "signature",
          "type": "string"
        },
        {
          "internalType": "bytes",
          "name": "data",
          "type": "bytes"
        },
        {
          "internalType": "uint256",
          "name": "eta",
          "type": "uint256"
        }
      ],
      "name": "queueTransaction",
      "outputs": [
        {
          "internalType": "bytes32",
          "name": "",
          "type": "bytes32"
        }
      ],
      "stateMutability": "nonpayable",
      "type": "function"
    },
    {
      "inputs": [
        {
          "internalType": "address",
          "name": "target",
          "type": "address"
        },
        {
          "internalType": "uint256",
          "name": "value",
          "type": "uint256"
        },
        {
          "internalType": "string",
          "name": "signature",
          "type": "string"
        },
        {
          "internalType": "bytes",
          "name": "data",
          "type": "bytes"
        },
        {
          "internalType": "uint256",
          "name": "eta",
          "type": "uint256"
        }
      ],
      "name": "cancelTransaction",
      "outputs": [],
      "stateMutability": "nonpayable",
      "type": "function"
    },
    {
      "inputs": [
        {
          "internalType": "address",
          "name": "target",
          "type": "address"
        },
        {
          "internalType": "uint256",
          "name": "value",
          "type": "uint256"
        },
        {
          "internalType": "string",
          "name": "signature",
          "type": "string"
        },
        {
          "internalType": "bytes",
          "name": "data",
          "type": "bytes"
        },
        {
          "internalType": "uint256",
          "name": "eta",
          "type": "uint256"
        }
      ],
      "name": "executeTransaction",
      "outputs": [
        {
          "internalType": "bytes",
          "name": "",
          "type": "bytes"
        }
      ],
      "stateMutability": "payable",
      "type": "function"
    }
  ],
  "bytecode": "0x60806040523480156200001157600080fd5b506040516200214438038062002144833981810160405281019062000037919062000160565b6154608110156200007f576040517f08c379a0000000000000000000000000000000000000000000000000000000008152600401620000769062000293565b60405180910390fd5b62278d00811115620000c8576040517f08c379a0000000000000000000000000000000000000000000000000000000008152600401620000bf9062000271565b60405180910390fd5b816000806101000a81548173ffffffffffffffffffffffffffffffffffffffff021916908373ffffffffffffffffffffffffffffffffffffffff160217905550806002819055506000600360006101000a81548160ff021916908315150217905550505062000338565b600081519050620001438162000304565b92915050565b6000815190506200015a816200031e565b92915050565b600080604083850312156200017457600080fd5b6000620001848582860162000132565b9250506020620001978582860162000149565b9150509250929050565b6000620001b0603b83620002b5565b91507f54696d656c6f636b3a3a636f6e7374727563746f723a2044656c6179206d757360008301527f74206e6f7420657863656564206d6178696d756d2064656c61792e00000000006020830152604082019050919050565b600062000218603783620002b5565b91507f54696d656c6f636b3a3a636f6e7374727563746f723a2044656c6179206d757360008301527f7420657863656564206d696e696d756d2064656c61792e0000000000000000006020830152604082019050919050565b600060208201905081810360008301526200028c81620001a1565b9050919050565b60006020820190508181036000830152620002ae8162000209565b9050919050565b600082825260208201905092915050565b6000620002d382620002da565b9050919050565b600073ffffffffffffffffffffffffffffffffffffffff82169050919050565b6000819050919050565b6200030f81620002c6565b81146200031b57600080fd5b50565b6200032981620002fa565b81146200033557600080fd5b50565b611dfc80620003486000396000f3fe6080604052600436106100e15760003560e01c80636fc1f57e1161007f578063c1a287e211610059578063c1a287e21461029a578063e177246e146102c5578063f2b06537146102ee578063f851a4401461032b576100e8565b80636fc1f57e146102195780637d645fab14610244578063b1b43ae51461026f576100e8565b80633a66f901116100bb5780633a66f9011461015f5780634dd18bf51461019c578063591fcdfe146101c55780636a42b8f8146101ee576100e8565b80630825f38f146100ed5780630e18b6811461011d5780632678224714610134576100e8565b366100e857005b600080fd5b6101076004803603810190610102919061100e565b610356565b60405161011491906118ce565b60405180910390f35b34801561012957600080fd5b506101326106a3565b005b34801561014057600080fd5b5061014961081a565b604051610156919061181c565b60405180910390f35b34801561016b57600080fd5b506101866004803603810190610181919061100e565b610840565b60405161019391906118b3565b60405180910390f35b3480156101a857600080fd5b506101c360048036038101906101be9190610fe5565b6109f0565b005b3480156101d157600080fd5b506101ec60048036038101906101e7919061100e565b610bcb565b005b3480156101fa57600080fd5b50610203610d15565b6040516102109190611ab0565b60405180910390f35b34801561022557600080fd5b5061022e610d1b565b60405161023b9190611898565b60405180910390f35b34801561025057600080fd5b50610259610d2e565b6040516102669190611ab0565b60405180910390f35b34801561027b57600080fd5b50610284610d35565b6040516102919190611ab0565b60405180910390f35b3480156102a657600080fd5b506102af610d3b565b6040516102bc9190611ab0565b60405180910390f35b3480156102d157600080fd5b506102ec60048036038101906102e791906110de565b610d42565b005b3480156102fa57600080fd5b50610315600480360381019061031091906110b5565b610e74565b6040516103229190611898565b60405180910390f35b34801561033757600080fd5b50610340610e94565b60405161034d919061181c565b60405180910390f35b606060008054906101000a900473ffffffffffffffffffffffffffffffffffffffff1673ffffffffffffffffffffffffffffffffffffffff163373ffffffffffffffffffffffffffffffffffffffff16146103e6576040517f08c379a00000000000000000000000000000000000000000000000000000000081526004016103dd906118f0565b60405180910390fd5b60008686868686604051602001610401959493929190611837565b6040516020818303038152906040528051906020012090506004600082815260200190815260200160002060009054906101000a900460ff16610479576040517f08c379a0000000000000000000000000000000000000000000000000000000008152600401610470906119d0565b60405180910390fd5b82610482610eb8565b10156104c3576040517f08c379a00000000000000000000000000000000000000000000000000000000081526004016104ba90611950565b60405180910390fd5b6104d96212750084610ec090919063ffffffff16565b6104e1610eb8565b1115610522576040517f08c379a000000000000000000000000000000000000000000000000000000000815260040161051990611930565b60405180910390fd5b60006004600083815260200190815260200160002060006101000a81548160ff02191690831515021790555060606000865114156105625784905061058e565b85805190602001208560405160200161057c9291906117dd565b60405160208183030381529060405290505b6000808973ffffffffffffffffffffffffffffffffffffffff1689846040516105b79190611805565b60006040518083038185875af1925050503d80600081146105f4576040519150601f19603f3d011682016040523d82523d6000602084013e6105f9565b606091505b50915091508161063e576040517f08c379a000000000000000000000000000000000000000000000000000000000815260040161063590611a50565b60405180910390fd5b8973ffffffffffffffffffffffffffffffffffffffff16847fa560e3198060a2f10670c1ec5b403077ea6ae93ca8de1c32b451dc1a943cd6e78b8b8b8b60405161068b9493929190611acb565b60405180910390a38094505050505095945050505050565b600160009054906101000a900473ffffffffffffffffffffffffffffffffffffffff1673ffffffffffffffffffffffffffffffffffffffff163373ffffffffffffffffffffffffffffffffffffffff1614610733576040517f08c379a000000000000000000000000000000000000000000000000000000000815260040161072a906119f0565b60405180910390fd5b336000806101000a81548173ffffffffffffffffffffffffffffffffffffffff021916908373ffffffffffffffffffffffffffffffffffffffff1602179055506000600160006101000a81548173ffffffffffffffffffffffffffffffffffffffff021916908373ffffffffffffffffffffffffffffffffffffffff16021790555060008054906101000a900473ffffffffffffffffffffffffffffffffffffffff1673ffffffffffffffffffffffffffffffffffffffff167f71614071b88dee5e0b2ae578a9dd7b2ebbe9ae832ba419dc0242cd065a290b6c60405160405180910390a2565b600160009054906101000a900473ffffffffffffffffffffffffffffffffffffffff1681565b60008060009054906101000a900473ffffffffffffffffffffffffffffffffffffffff1673ffffffffffffffffffffffffffffffffffffffff163373ffffffffffffffffffffffffffffffffffffffff16146108d1576040517f08c379a00000000000000000000000000000000000000000000000000000000081526004016108c890611a30565b60405180910390fd5b6108ed6002546108df610eb8565b610ec090919063ffffffff16565b82101561092f576040517f08c379a000000000000000000000000000000000000000000000000000000000815260040161092690611a70565b60405180910390fd5b6000868686868660405160200161094a959493929190611837565b60405160208183030381529060405280519060200120905060016004600083815260200190815260200160002060006101000a81548160ff0219169083151502179055508673ffffffffffffffffffffffffffffffffffffffff16817f76e2796dc3a81d57b0e8504b647febcbeeb5f4af818e164f11eef8131a6a763f888888886040516109db9493929190611acb565b60405180910390a38091505095945050505050565b600360009054906101000a900460ff1615610a78573073ffffffffffffffffffffffffffffffffffffffff163373ffffffffffffffffffffffffffffffffffffffff1614610a73576040517f08c379a0000000000000000000000000000000000000000000000000000000008152600401610a6a90611a10565b60405180910390fd5b610b22565b60008054906101000a900473ffffffffffffffffffffffffffffffffffffffff1673ffffffffffffffffffffffffffffffffffffffff163373ffffffffffffffffffffffffffffffffffffffff1614610b06576040517f08c379a0000000000000000000000000000000000000000000000000000000008152600401610afd90611990565b60405180910390fd5b6001600360006101000a81548160ff0219169083151502179055505b80600160006101000a81548173ffffffffffffffffffffffffffffffffffffffff021916908373ffffffffffffffffffffffffffffffffffffffff160217905550600160009054906101000a900473ffffffffffffffffffffffffffffffffffffffff1673ffffffffffffffffffffffffffffffffffffffff167f69d78e38a01985fbb1462961809b4b2d65531bc93b2b94037f3334b82ca4a75660405160405180910390a250565b60008054906101000a900473ffffffffffffffffffffffffffffffffffffffff1673ffffffffffffffffffffffffffffffffffffffff163373ffffffffffffffffffffffffffffffffffffffff1614610c59576040517f08c379a0000000000000000000000000000000000000000000000000000000008152600401610c5090611910565b60405180910390fd5b60008585858585604051602001610c74959493929190611837565b60405160208183030381529060405280519060200120905060006004600083815260200190815260200160002060006101000a81548160ff0219169083151502179055508573ffffffffffffffffffffffffffffffffffffffff16817f2fffc091a501fd91bfbff27141450d3acb40fb8e6d8382b243ec7a812a3aaf8787878787604051610d059493929190611acb565b60405180910390a3505050505050565b60025481565b600360009054906101000a900460ff1681565b62278d0081565b61546081565b6212750081565b3073ffffffffffffffffffffffffffffffffffffffff163373ffffffffffffffffffffffffffffffffffffffff1614610db0576040517f08c379a0000000000000000000000000000000000000000000000000000000008152600401610da790611a90565b60405180910390fd5b615460811015610df5576040517f08c379a0000000000000000000000000000000000000000000000000000000008152600401610dec90611970565b60405180910390fd5b62278d00811115610e3b576040517f08c379a0000000000000000000000000000000000000000000000000000000008152600401610e32906119b0565b60405180910390fd5b806002819055506002547f948b1f6a42ee138b7e34058ba85a37f716d55ff25ff05a763f15bed6a04c8d2c60405160405180910390a250565b60046020528060005260406000206000915054906101000a900460ff1681565b60008054906101000a900473ffffffffffffffffffffffffffffffffffffffff1681565b600042905090565b60008183610ece9190611bf2565b905092915050565b6000610ee9610ee484611b4f565b611b1e565b905082815260208101848484011115610f0157600080fd5b610f0c848285611cc6565b509392505050565b6000610f27610f2284611b7f565b611b1e565b905082815260208101848484011115610f3f57600080fd5b610f4a848285611cc6565b509392505050565b600081359050610f6181611d81565b92915050565b600081359050610f7681611d98565b92915050565b600082601f830112610f8d57600080fd5b8135610f9d848260208601610ed6565b91505092915050565b600082601f830112610fb757600080fd5b8135610fc7848260208601610f14565b91505092915050565b600081359050610fdf81611daf565b92915050565b600060208284031215610ff757600080fd5b600061100584828501610f52565b91505092915050565b600080600080600060a0868803121561102657600080fd5b600061103488828901610f52565b955050602061104588828901610fd0565b945050604086013567ffffffffffffffff81111561106257600080fd5b61106e88828901610fa6565b935050606086013567ffffffffffffffff81111561108b57600080fd5b61109788828901610f7c565b92505060806110a888828901610fd0565b9150509295509295909350565b6000602082840312156110c757600080fd5b60006110d584828501610f67565b91505092915050565b6000602082840312156110f057600080fd5b60006110fe84828501610fd0565b91505092915050565b61111081611c48565b82525050565b61111f81611c5a565b82525050565b61112e81611c66565b82525050565b61114561114082611c70565b611d08565b82525050565b600061115682611baf565b6111608185611bc5565b9350611170818560208601611cd5565b61117981611d70565b840191505092915050565b600061118f82611baf565b6111998185611bd6565b93506111a9818560208601611cd5565b80840191505092915050565b60006111c082611bba565b6111ca8185611be1565b93506111da818560208601611cd5565b6111e381611d70565b840191505092915050565b60006111fb603883611be1565b91507f54696d656c6f636b3a3a657865637574655472616e73616374696f6e3a20436160008301527f6c6c206d75737420636f6d652066726f6d2061646d696e2e00000000000000006020830152604082019050919050565b6000611261603783611be1565b91507f54696d656c6f636b3a3a63616e63656c5472616e73616374696f6e3a2043616c60008301527f6c206d75737420636f6d652066726f6d2061646d696e2e0000000000000000006020830152604082019050919050565b60006112c7603383611be1565b91507f54696d656c6f636b3a3a657865637574655472616e73616374696f6e3a20547260008301527f616e73616374696f6e206973207374616c652e000000000000000000000000006020830152604082019050919050565b600061132d604583611be1565b91507f54696d656c6f636b3a3a657865637574655472616e73616374696f6e3a20547260008301527f616e73616374696f6e206861736e2774207375727061737365642074696d652060208301527f6c6f636b2e0000000000000000000000000000000000000000000000000000006040830152606082019050919050565b60006113b9603483611be1565b91507f54696d656c6f636b3a3a73657444656c61793a2044656c6179206d757374206560008301527f7863656564206d696e696d756d2064656c61792e0000000000000000000000006020830152604082019050919050565b600061141f603b83611be1565b91507f54696d656c6f636b3a3a73657450656e64696e6741646d696e3a20466972737460008301527f2063616c6c206d75737420636f6d652066726f6d2061646d696e2e00000000006020830152604082019050919050565b6000611485603883611be1565b91507f54696d656c6f636b3a3a73657444656c61793a2044656c6179206d757374206e60008301527f6f7420657863656564206d6178696d756d2064656c61792e00000000000000006020830152604082019050919050565b60006114eb603d83611be1565b91507f54696d656c6f636b3a3a657865637574655472616e73616374696f6e3a20547260008301527f616e73616374696f6e206861736e2774206265656e207175657565642e0000006020830152604082019050919050565b6000611551603883611be1565b91507f54696d656c6f636b3a3a61636365707441646d696e3a2043616c6c206d75737460008301527f20636f6d652066726f6d2070656e64696e6741646d696e2e00000000000000006020830152604082019050919050565b60006115b7603883611be1565b91507f54696d656c6f636b3a3a73657450656e64696e6741646d696e3a2043616c6c2060008301527f6d75737420636f6d652066726f6d2054696d656c6f636b2e00000000000000006020830152604082019050919050565b600061161d603683611be1565b91507f54696d656c6f636b3a3a71756575655472616e73616374696f6e3a2043616c6c60008301527f206d75737420636f6d652066726f6d2061646d696e2e000000000000000000006020830152604082019050919050565b6000611683603d83611be1565b91507f54696d656c6f636b3a3a657865637574655472616e73616374696f6e3a20547260008301527f616e73616374696f6e20657865637574696f6e2072657665727465642e0000006020830152604082019050919050565b60006116e9604983611be1565b91507f54696d656c6f636b3a3a71756575655472616e73616374696f6e3a204573746960008301527f6d6174656420657865637574696f6e20626c6f636b206d75737420736174697360208301527f66792064656c61792e00000000000000000000000000000000000000000000006040830152606082019050919050565b6000611775603183611be1565b91507f54696d656c6f636b3a3a73657444656c61793a2043616c6c206d75737420636f60008301527f6d652066726f6d2054696d656c6f636b2e0000000000000000000000000000006020830152604082019050919050565b6117d781611cbc565b82525050565b60006117e98285611134565b6004820191506117f98284611184565b91508190509392505050565b60006118118284611184565b915081905092915050565b60006020820190506118316000830184611107565b92915050565b600060a08201905061184c6000830188611107565b61185960208301876117ce565b818103604083015261186b81866111b5565b9050818103606083015261187f818561114b565b905061188e60808301846117ce565b9695505050505050565b60006020820190506118ad6000830184611116565b92915050565b60006020820190506118c86000830184611125565b92915050565b600060208201905081810360008301526118e8818461114b565b905092915050565b60006020820190508181036000830152611909816111ee565b9050919050565b6000602082019050818103600083015261192981611254565b9050919050565b60006020820190508181036000830152611949816112ba565b9050919050565b6000602082019050818103600083015261196981611320565b9050919050565b60006020820190508181036000830152611989816113ac565b9050919050565b600060208201905081810360008301526119a981611412565b9050919050565b600060208201905081810360008301526119c981611478565b9050919050565b600060208201905081810360008301526119e9816114de565b9050919050565b60006020820190508181036000830152611a0981611544565b9050919050565b60006020820190508181036000830152611a29816115aa565b9050919050565b60006020820190508181036000830152611a4981611610565b9050919050565b60006020820190508181036000830152611a6981611676565b9050919050565b60006020820190508181036000830152611a89816116dc565b9050919050565b60006020820190508181036000830152611aa981611768565b9050919050565b6000602082019050611ac560008301846117ce565b92915050565b6000608082019050611ae060008301876117ce565b8181036020830152611af281866111b5565b90508181036040830152611b06818561114b565b9050611b1560608301846117ce565b95945050505050565b6000604051905081810181811067ffffffffffffffff82111715611b4557611b44611d41565b5b8060405250919050565b600067ffffffffffffffff821115611b6a57611b69611d41565b5b601f19601f8301169050602081019050919050565b600067ffffffffffffffff821115611b9a57611b99611d41565b5b601f19601f8301169050602081019050919050565b600081519050919050565b600081519050919050565b600082825260208201905092915050565b600081905092915050565b600082825260208201905092915050565b6000611bfd82611cbc565b9150611c0883611cbc565b9250827fffffffffffffffffffffffffffffffffffffffffffffffffffffffffffffffff03821115611c3d57611c3c611d12565b5b828201905092915050565b6000611c5382611c9c565b9050919050565b60008115159050919050565b6000819050919050565b60007fffffffff0000000000000000000000000000000000000000000000000000000082169050919050565b600073ffffffffffffffffffffffffffffffffffffffff82169050919050565b6000819050919050565b82818337600083830152505050565b60005b83811015611cf3578082015181840152602081019050611cd8565b83811115611d02576000848401525b50505050565b6000819050919050565b7f4e487b7100000000000000000000000000000000000000000000000000000000600052601160045260246000fd5b7f4e487b7100000000000000000000000000000000000000000000000000000000600052604160045260246000fd5b6000601f19601f8301169050919050565b611d8a81611c48565b8114611d9557600080fd5b50565b611da181611c66565b8114611dac57600080fd5b50565b611db881611cbc565b8114611dc357600080fd5b5056fea26469706673582212208a363d882b6e00c2ebb98439cde56fcdd610c0920f9d46654df503ca2bd75b2164736f6c63430008000033",
  "immutableReferences": {},
  "source": "pragma solidity 0.8.0;\n\n// SPDX-License-Identifier: MIT\n// CAUTION\n// This version of SafeMath should only be used with Solidity 0.8 or later,\n// because it relies on the compiler's built in overflow checks.\n/**\n * @dev Wrappers over Solidity's arithmetic operations.\n *\n * NOTE: `SafeMath` is no longer needed starting with Solidity 0.8. The compiler\n * now has built in overflow checking.\n */\nlibrary SafeMath {\n    /**\n     * @dev Returns the addition of two unsigned integers, with an overflow flag.\n     *\n     * _Available since v3.4._\n     */\n    function tryAdd(uint256 a, uint256 b)\n        internal\n        pure\n        returns (bool, uint256)\n    {\n        unchecked {\n            uint256 c = a + b;\n            if (c < a) return (false, 0);\n            return (true, c);\n        }\n    }\n\n    /**\n     * @dev Returns the substraction of two unsigned integers, with an overflow flag.\n     *\n     * _Available since v3.4._\n     */\n    function trySub(uint256 a, uint256 b)\n        internal\n        pure\n        returns (bool, uint256)\n    {\n        unchecked {\n            if (b > a) return (false, 0);\n            return (true, a - b);\n        }\n    }\n\n    /**\n     * @dev Returns the multiplication of two unsigned integers, with an overflow flag.\n     *\n     * _Available since v3.4._\n     */\n    function tryMul(uint256 a, uint256 b)\n        internal\n        pure\n        returns (bool, uint256)\n    {\n        unchecked {\n            // Gas optimization: this is cheaper than requiring 'a' not being zero, but the\n            // benefit is lost if 'b' is also tested.\n            // See: https://github.com/OpenZeppelin/openzeppelin-contracts/pull/522\n            if (a == 0) return (true, 0);\n            uint256 c = a * b;\n            if (c / a != b) return (false, 0);\n            return (true, c);\n        }\n    }\n\n    /**\n     * @dev Returns the division of two unsigned integers, with a division by zero flag.\n     *\n     * _Available since v3.4._\n     */\n    function tryDiv(uint256 a, uint256 b)\n        internal\n        pure\n        returns (bool, uint256)\n    {\n        unchecked {\n            if (b == 0) return (false, 0);\n            return (true, a / b);\n        }\n    }\n\n    /**\n     * @dev Returns the remainder of dividing two unsigned integers, with a division by zero flag.\n     *\n     * _Available since v3.4._\n     */\n    function tryMod(uint256 a, uint256 b)\n        internal\n        pure\n        returns (bool, uint256)\n    {\n        unchecked {\n            if (b == 0) return (false, 0);\n            return (true, a % b);\n        }\n    }\n\n    /**\n     * @dev Returns the addition of two unsigned integers, reverting on\n     * overflow.\n     *\n     * Counterpart to Solidity's `+` operator.\n     *\n     * Requirements:\n     *\n     * - Addition cannot overflow.\n     */\n    function add(uint256 a, uint256 b) internal pure returns (uint256) {\n        return a + b;\n    }\n\n    /**\n     * @dev Returns the subtraction of two unsigned integers, reverting on\n     * overflow (when the result is negative).\n     *\n     * Counterpart to Solidity's `-` operator.\n     *\n     * Requirements:\n     *\n     * - Subtraction cannot overflow.\n     */\n    function sub(uint256 a, uint256 b) internal pure returns (uint256) {\n        return a - b;\n    }\n\n    /**\n     * @dev Returns the multiplication of two unsigned integers, reverting on\n     * overflow.\n     *\n     * Counterpart to Solidity's `*` operator.\n     *\n     * Requirements:\n     *\n     * - Multiplication cannot overflow.\n     */\n    function mul(uint256 a, uint256 b) internal pure returns (uint256) {\n        return a * b;\n    }\n\n    /**\n     * @dev Returns the integer division of two unsigned integers, reverting on\n     * division by zero. The result is rounded towards zero.\n     *\n     * Counterpart to Solidity's `/` operator.\n     *\n     * Requirements:\n     *\n     * - The divisor cannot be zero.\n     */\n    function div(uint256 a, uint256 b) internal pure returns (uint256) {\n        return a / b;\n    }\n\n    /**\n     * @dev Returns the remainder of dividing two unsigned integers. (unsigned integer modulo),\n     * reverting when dividing by zero.\n     *\n     * Counterpart to Solidity's `%` operator. This function uses a `revert`\n     * opcode (which leaves remaining gas untouched) while Solidity uses an\n     * invalid opcode to revert (consuming all remaining gas).\n     *\n     * Requirements:\n     *\n     * - The divisor cannot be zero.\n     */\n    function mod(uint256 a, uint256 b) internal pure returns (uint256) {\n        return a % b;\n    }\n\n    /**\n     * @dev Returns the subtraction of two unsigned integers, reverting with custom message on\n     * overflow (when the result is negative).\n     *\n     * CAUTION: This function is deprecated because it requires allocating memory for the error\n     * message unnecessarily. For custom revert reasons use {trySub}.\n     *\n     * Counterpart to Solidity's `-` operator.\n     *\n     * Requirements:\n     *\n     * - Subtraction cannot overflow.\n     */\n    function sub(\n        uint256 a,\n        uint256 b,\n        string memory errorMessage\n    ) internal pure returns (uint256) {\n        unchecked {\n            require(b <= a, errorMessage);\n            return a - b;\n        }\n    }\n\n    /**\n     * @dev Returns the integer division of two unsigned integers, reverting with custom message on\n     * division by zero. The result is rounded towards zero.\n     *\n     * Counterpart to Solidity's `/` operator. Note: this function uses a\n     * `revert` opcode (which leaves remaining gas untouched) while Solidity\n     * uses an invalid opcode to revert (consuming all remaining gas).\n     *\n     * Requirements:\n     *\n     * - The divisor cannot be zero.\n     */\n    function div(\n        uint256 a,\n        uint256 b,\n        string memory errorMessage\n    ) internal pure returns (uint256) {\n        unchecked {\n            require(b > 0, errorMessage);\n            return a / b;\n        }\n    }\n\n    /**\n     * @dev Returns the remainder of dividing two unsigned integers. (unsigned integer modulo),\n     * reverting with custom message when dividing by zero.\n     *\n     * CAUTION: This function is deprecated because it requires allocating memory for the error\n     * message unnecessarily. For custom revert reasons use {tryMod}.\n     *\n     * Counterpart to Solidity's `%` operator. This function uses a `revert`\n     * opcode (which leaves remaining gas untouched) while Solidity uses an\n     * invalid opcode to revert (consuming all remaining gas).\n     *\n     * Requirements:\n     *\n     * - The divisor cannot be zero.\n     */\n    function mod(\n        uint256 a,\n        uint256 b,\n        string memory errorMessage\n    ) internal pure returns (uint256) {\n        unchecked {\n            require(b > 0, errorMessage);\n            return a % b;\n        }\n    }\n}\n\n// COPIED FROM https://github.com/compound-finance/compound-protocol/blob/master/contracts/Governance/GovernorAlpha.sol\n// Copyright 2020 Compound Labs, Inc.\n// Redistribution and use in source and binary forms, with or without modification, are permitted provided that the following conditions are met:\n// 1. Redistributions of source code must retain the above copyright notice, this list of conditions and the following disclaimer.\n// 2. Redistributions in binary form must reproduce the above copyright notice, this list of conditions and the following disclaimer in the documentation and/or other materials provided with the distribution.\n// 3. Neither the name of the copyright holder nor the names of its contributors may be used to endorse or promote products derived from this software without specific prior written permission.\n// THIS SOFTWARE IS PROVIDED BY THE COPYRIGHT HOLDERS AND CONTRIBUTORS \"AS IS\" AND ANY EXPRESS OR IMPLIED WARRANTIES, INCLUDING, BUT NOT LIMITED TO, THE IMPLIED WARRANTIES OF MERCHANTABILITY AND FITNESS FOR A PARTICULAR PURPOSE ARE DISCLAIMED. IN NO EVENT SHALL THE COPYRIGHT HOLDER OR CONTRIBUTORS BE LIABLE FOR ANY DIRECT, INDIRECT, INCIDENTAL, SPECIAL, EXEMPLARY, OR CONSEQUENTIAL DAMAGES (INCLUDING, BUT NOT LIMITED TO, PROCUREMENT OF SUBSTITUTE GOODS OR SERVICES; LOSS OF USE, DATA, OR PROFITS; OR BUSINESS INTERRUPTION) HOWEVER CAUSED AND ON ANY THEORY OF LIABILITY, WHETHER IN CONTRACT, STRICT LIABILITY, OR TORT (INCLUDING NEGLIGENCE OR OTHERWISE) ARISING IN ANY WAY OUT OF THE USE OF THIS SOFTWARE, EVEN IF ADVISED OF THE POSSIBILITY OF SUCH DAMAGE.\n//\n// Ctrl+f for XXX to see all the modifications.\n// XXX: pragma solidity ^0.5.16;\n// XXX: import \"./SafeMath.sol\";\ncontract TimelockM {\n    using SafeMath for uint256;\n\n    event NewAdmin(address indexed newAdmin);\n    event NewPendingAdmin(address indexed newPendingAdmin);\n    event NewDelay(uint256 indexed newDelay);\n    event CancelTransaction(\n        bytes32 indexed txHash,\n        address indexed target,\n        uint256 value,\n        string signature,\n        bytes data,\n        uint256 eta\n    );\n    event ExecuteTransaction(\n        bytes32 indexed txHash,\n        address indexed target,\n        uint256 value,\n        string signature,\n        bytes data,\n        uint256 eta\n    );\n    event QueueTransaction(\n        bytes32 indexed txHash,\n        address indexed target,\n        uint256 value,\n        string signature,\n        bytes data,\n        uint256 eta\n    );\n\n    uint256 public constant GRACE_PERIOD = 14 days;\n    uint256 public constant MINIMUM_DELAY = 21600;\n    uint256 public constant MAXIMUM_DELAY = 30 days;\n\n    address public admin;\n    address public pendingAdmin;\n    uint256 public delay;\n    bool public admin_initialized;\n\n    mapping(bytes32 => bool) public queuedTransactions;\n\n    constructor(address admin_, uint256 delay_) public {\n        require(\n            delay_ >= MINIMUM_DELAY,\n            \"Timelock::constructor: Delay must exceed minimum delay.\"\n        );\n        require(\n            delay_ <= MAXIMUM_DELAY,\n            \"Timelock::constructor: Delay must not exceed maximum delay.\"\n        );\n\n        admin = admin_;\n        delay = delay_;\n        admin_initialized = false;\n    }\n\n    // XXX: function() external payable { }\n    receive() external payable {}\n\n    function setDelay(uint256 delay_) public {\n        require(\n            msg.sender == address(this),\n            \"Timelock::setDelay: Call must come from Timelock.\"\n        );\n        require(\n            delay_ >= MINIMUM_DELAY,\n            \"Timelock::setDelay: Delay must exceed minimum delay.\"\n        );\n        require(\n            delay_ <= MAXIMUM_DELAY,\n            \"Timelock::setDelay: Delay must not exceed maximum delay.\"\n        );\n        delay = delay_;\n\n        emit NewDelay(delay);\n    }\n\n    function acceptAdmin() public {\n        require(\n            msg.sender == pendingAdmin,\n            \"Timelock::acceptAdmin: Call must come from pendingAdmin.\"\n        );\n        admin = msg.sender;\n        pendingAdmin = address(0);\n\n        emit NewAdmin(admin);\n    }\n\n    function setPendingAdmin(address pendingAdmin_) public {\n        // allows one time setting of admin for deployment purposes\n        if (admin_initialized) {\n            require(\n                msg.sender == address(this),\n                \"Timelock::setPendingAdmin: Call must come from Timelock.\"\n            );\n        } else {\n            require(\n                msg.sender == admin,\n                \"Timelock::setPendingAdmin: First call must come from admin.\"\n            );\n            admin_initialized = true;\n        }\n        pendingAdmin = pendingAdmin_;\n\n        emit NewPendingAdmin(pendingAdmin);\n    }\n\n    function queueTransaction(\n        address target,\n        uint256 value,\n        string memory signature,\n        bytes memory data,\n        uint256 eta\n    ) public returns (bytes32) {\n        require(\n            msg.sender == admin,\n            \"Timelock::queueTransaction: Call must come from admin.\"\n        );\n        require(\n            eta >= getBlockTimestamp().add(delay),\n            \"Timelock::queueTransaction: Estimated execution block must satisfy delay.\"\n        );\n\n        bytes32 txHash = keccak256(\n            abi.encode(target, value, signature, data, eta)\n        );\n        queuedTransactions[txHash] = true;\n\n        emit QueueTransaction(txHash, target, value, signature, data, eta);\n        return txHash;\n    }\n\n    function cancelTransaction(\n        address target,\n        uint256 value,\n        string memory signature,\n        bytes memory data,\n        uint256 eta\n    ) public {\n        require(\n            msg.sender == admin,\n            \"Timelock::cancelTransaction: Call must come from admin.\"\n        );\n\n        bytes32 txHash = keccak256(\n            abi.encode(target, value, signature, data, eta)\n        );\n        queuedTransactions[txHash] = false;\n\n        emit CancelTransaction(txHash, target, value, signature, data, eta);\n    }\n\n    function executeTransaction(\n        address target,\n        uint256 value,\n        string memory signature,\n        bytes memory data,\n        uint256 eta\n    ) public payable returns (bytes memory) {\n        require(\n            msg.sender == admin,\n            \"Timelock::executeTransaction: Call must come from admin.\"\n        );\n\n        bytes32 txHash = keccak256(\n            abi.encode(target, value, signature, data, eta)\n        );\n        require(\n            queuedTransactions[txHash],\n            \"Timelock::executeTransaction: Transaction hasn't been queued.\"\n        );\n        require(\n            getBlockTimestamp() >= eta,\n            \"Timelock::executeTransaction: Transaction hasn't surpassed time lock.\"\n        );\n        require(\n            getBlockTimestamp() <= eta.add(GRACE_PERIOD),\n            \"Timelock::executeTransaction: Transaction is stale.\"\n        );\n\n        queuedTransactions[txHash] = false;\n\n        bytes memory callData;\n\n        if (bytes(signature).length == 0) {\n            callData = data;\n        } else {\n            callData = abi.encodePacked(\n                bytes4(keccak256(bytes(signature))),\n                data\n            );\n        }\n\n        // solium-disable-next-line security/no-call-value\n        // (bool success, bytes memory returnData) = target.call.value(value)(\n        (bool success, bytes memory returnData) = target.call{value: value}(\n            callData\n        );\n        require(\n            success,\n            \"Timelock::executeTransaction: Transaction execution reverted.\"\n        );\n\n        emit ExecuteTransaction(txHash, target, value, signature, data, eta);\n\n        return returnData;\n    }\n\n    function getBlockTimestamp() internal view returns (uint256) {\n        // solium-disable-next-line security/no-block-members\n        return block.timestamp;\n    }\n}\n",
  "sourcePath": "/Users/fungp/mock-farm/farm/contracts/TimelockM.sol",
  "compiler": {
    "name": "solc",
    "version": "0.8.0+commit.c7dfd78e.Emscripten.clang"
  },
  "schemaVersion": "3.4.1",
  "updatedAt": "2021-12-31T02:09:43.099Z",
  "devdoc": {
    "kind": "dev",
    "methods": {},
    "version": 1
  },
  "userdoc": {
    "kind": "user",
    "methods": {},
    "version": 1
  }
}