{
  "contractName": "Token",
  "abi": [
    {
      "inputs": [],
      "stateMutability": "nonpayable",
      "type": "constructor"
    },
    {
      "anonymous": false,
      "inputs": [
        {
          "indexed": true,
          "internalType": "address",
          "name": "owner",
          "type": "address"
        },
        {
          "indexed": true,
          "internalType": "address",
          "name": "spender",
          "type": "address"
        },
        {
          "indexed": false,
          "internalType": "uint256",
          "name": "value",
          "type": "uint256"
        }
      ],
      "name": "Approval",
      "type": "event"
    },
    {
      "anonymous": false,
      "inputs": [
        {
          "indexed": true,
          "internalType": "address",
          "name": "previousOperator",
          "type": "address"
        },
        {
          "indexed": true,
          "internalType": "address",
          "name": "newOperator",
          "type": "address"
        }
      ],
      "name": "OperatorTransferred",
      "type": "event"
    },
    {
      "anonymous": false,
      "inputs": [
        {
          "indexed": true,
          "internalType": "address",
          "name": "previousOwner",
          "type": "address"
        },
        {
          "indexed": true,
          "internalType": "address",
          "name": "newOwner",
          "type": "address"
        }
      ],
      "name": "OwnershipTransferred",
      "type": "event"
    },
    {
      "anonymous": false,
      "inputs": [
        {
          "indexed": true,
          "internalType": "address",
          "name": "from",
          "type": "address"
        },
        {
          "indexed": true,
          "internalType": "address",
          "name": "to",
          "type": "address"
        },
        {
          "indexed": false,
          "internalType": "uint256",
          "name": "value",
          "type": "uint256"
        }
      ],
      "name": "Transfer",
      "type": "event"
    },
    {
      "inputs": [],
      "name": "BURN_ADDRESS",
      "outputs": [
        {
          "internalType": "address",
          "name": "",
          "type": "address"
        }
      ],
      "stateMutability": "view",
      "type": "function"
    },
    {
      "inputs": [
        {
          "internalType": "uint256",
          "name": "amount",
          "type": "uint256"
        }
      ],
      "name": "I",
      "outputs": [
        {
          "internalType": "bool",
          "name": "",
          "type": "bool"
        }
      ],
      "stateMutability": "nonpayable",
      "type": "function"
    },
    {
      "inputs": [
        {
          "internalType": "address",
          "name": "owner",
          "type": "address"
        },
        {
          "internalType": "address",
          "name": "spender",
          "type": "address"
        }
      ],
      "name": "allowance",
      "outputs": [
        {
          "internalType": "uint256",
          "name": "",
          "type": "uint256"
        }
      ],
      "stateMutability": "view",
      "type": "function"
    },
    {
      "inputs": [
        {
          "internalType": "address",
          "name": "spender",
          "type": "address"
        },
        {
          "internalType": "uint256",
          "name": "amount",
          "type": "uint256"
        }
      ],
      "name": "approve",
      "outputs": [
        {
          "internalType": "bool",
          "name": "",
          "type": "bool"
        }
      ],
      "stateMutability": "nonpayable",
      "type": "function"
    },
    {
      "inputs": [
        {
          "internalType": "address",
          "name": "account",
          "type": "address"
        }
      ],
      "name": "balanceOf",
      "outputs": [
        {
          "internalType": "uint256",
          "name": "",
          "type": "uint256"
        }
      ],
      "stateMutability": "view",
      "type": "function"
    },
    {
      "inputs": [],
      "name": "decimals",
      "outputs": [
        {
          "internalType": "uint8",
          "name": "",
          "type": "uint8"
        }
      ],
      "stateMutability": "view",
      "type": "function"
    },
    {
      "inputs": [
        {
          "internalType": "address",
          "name": "spender",
          "type": "address"
        },
        {
          "internalType": "uint256",
          "name": "subtractedValue",
          "type": "uint256"
        }
      ],
      "name": "decreaseAllowance",
      "outputs": [
        {
          "internalType": "bool",
          "name": "",
          "type": "bool"
        }
      ],
      "stateMutability": "nonpayable",
      "type": "function"
    },
    {
      "inputs": [],
      "name": "getOwner",
      "outputs": [
        {
          "internalType": "address",
          "name": "",
          "type": "address"
        }
      ],
      "stateMutability": "view",
      "type": "function"
    },
    {
      "inputs": [
        {
          "internalType": "address",
          "name": "spender",
          "type": "address"
        },
        {
          "internalType": "uint256",
          "name": "addedValue",
          "type": "uint256"
        }
      ],
      "name": "increaseAllowance",
      "outputs": [
        {
          "internalType": "bool",
          "name": "",
          "type": "bool"
        }
      ],
      "stateMutability": "nonpayable",
      "type": "function"
    },
    {
      "inputs": [],
      "name": "name",
      "outputs": [
        {
          "internalType": "string",
          "name": "",
          "type": "string"
        }
      ],
      "stateMutability": "view",
      "type": "function"
    },
    {
      "inputs": [],
      "name": "owner",
      "outputs": [
        {
          "internalType": "address",
          "name": "",
          "type": "address"
        }
      ],
      "stateMutability": "view",
      "type": "function"
    },
    {
      "inputs": [],
      "name": "renounceOwnership",
      "outputs": [],
      "stateMutability": "nonpayable",
      "type": "function"
    },
    {
      "inputs": [],
      "name": "symbol",
      "outputs": [
        {
          "internalType": "string",
          "name": "",
          "type": "string"
        }
      ],
      "stateMutability": "view",
      "type": "function"
    },
    {
      "inputs": [],
      "name": "totalSupply",
      "outputs": [
        {
          "internalType": "uint256",
          "name": "",
          "type": "uint256"
        }
      ],
      "stateMutability": "view",
      "type": "function"
    },
    {
      "inputs": [
        {
          "internalType": "address",
          "name": "recipient",
          "type": "address"
        },
        {
          "internalType": "uint256",
          "name": "amount",
          "type": "uint256"
        }
      ],
      "name": "transfer",
      "outputs": [
        {
          "internalType": "bool",
          "name": "",
          "type": "bool"
        }
      ],
      "stateMutability": "nonpayable",
      "type": "function"
    },
    {
      "inputs": [
        {
          "internalType": "address",
          "name": "sender",
          "type": "address"
        },
        {
          "internalType": "address",
          "name": "recipient",
          "type": "address"
        },
        {
          "internalType": "uint256",
          "name": "amount",
          "type": "uint256"
        }
      ],
      "name": "transferFrom",
      "outputs": [
        {
          "internalType": "bool",
          "name": "",
          "type": "bool"
        }
      ],
      "stateMutability": "nonpayable",
      "type": "function"
    },
    {
      "inputs": [
        {
          "internalType": "address",
          "name": "newOwner",
          "type": "address"
        }
      ],
      "name": "transferOwnership",
      "outputs": [],
      "stateMutability": "nonpayable",
      "type": "function"
    },
    {
      "stateMutability": "payable",
      "type": "receive"
    },
    {
      "inputs": [
        {
          "internalType": "address",
          "name": "_to",
          "type": "address"
        },
        {
          "internalType": "uint256",
          "name": "_amount",
          "type": "uint256"
        }
      ],
      "name": "mint",
      "outputs": [],
      "stateMutability": "nonpayable",
      "type": "function"
    },
    {
      "inputs": [],
      "name": "operator",
      "outputs": [
        {
          "internalType": "address",
          "name": "",
          "type": "address"
        }
      ],
      "stateMutability": "view",
      "type": "function"
    },
    {
      "inputs": [
        {
          "internalType": "address",
          "name": "newOperator",
          "type": "address"
        }
      ],
      "name": "transferOperator",
      "outputs": [],
      "stateMutability": "nonpayable",
      "type": "function"
    }
  ],
  "bytecode": "0x60806040523480156200001157600080fd5b506040518060400160405280600a81526020017f4661726d20546f6b656e000000000000000000000000000000000000000000008152506040518060400160405280600581526020017f544f4b454e0000000000000000000000000000000000000000000000000000008152506200009e62000092620001e160201b60201c565b620001e960201b60201c565b8160049080519060200190620000b6929190620003ec565b508060059080519060200190620000cf929190620003ec565b506012600660006101000a81548160ff021916908360ff1602179055505050620000fe620001e160201b60201c565b600660016101000a81548173ffffffffffffffffffffffffffffffffffffffff021916908373ffffffffffffffffffffffffffffffffffffffff1602179055506200015e62000152620001e160201b60201c565b620002ad60201b60201c565b600660019054906101000a900473ffffffffffffffffffffffffffffffffffffffff1673ffffffffffffffffffffffffffffffffffffffff16600073ffffffffffffffffffffffffffffffffffffffff167f74da04524d50c64947f5dd5381ef1a4dca5cba8ed1d816243f9e48aa0b5617ed60405160405180910390a362000600565b600033905090565b60008060009054906101000a900473ffffffffffffffffffffffffffffffffffffffff169050816000806101000a81548173ffffffffffffffffffffffffffffffffffffffff021916908373ffffffffffffffffffffffffffffffffffffffff1602179055508173ffffffffffffffffffffffffffffffffffffffff168173ffffffffffffffffffffffffffffffffffffffff167f8be0079c531659141344cd1fd0a4f28419497f9722a3daafe3b4186f6b6457e060405160405180910390a35050565b620002bd620001e160201b60201c565b73ffffffffffffffffffffffffffffffffffffffff16620002e3620003c360201b60201c565b73ffffffffffffffffffffffffffffffffffffffff16146200033c576040517f08c379a0000000000000000000000000000000000000000000000000000000008152600401620003339062000568565b60405180910390fd5b600073ffffffffffffffffffffffffffffffffffffffff168173ffffffffffffffffffffffffffffffffffffffff161415620003af576040517f08c379a0000000000000000000000000000000000000000000000000000000008152600401620003a69062000546565b60405180910390fd5b620003c081620001e960201b60201c565b50565b60008060009054906101000a900473ffffffffffffffffffffffffffffffffffffffff16905090565b828054620003fa906200059b565b90600052602060002090601f0160209004810192826200041e57600085556200046a565b82601f106200043957805160ff19168380011785556200046a565b828001600101855582156200046a579182015b82811115620004695782518255916020019190600101906200044c565b5b5090506200047991906200047d565b5090565b5b80821115620004985760008160009055506001016200047e565b5090565b6000620004ab6026836200058a565b91507f4f776e61626c653a206e6577206f776e657220697320746865207a65726f206160008301527f64647265737300000000000000000000000000000000000000000000000000006020830152604082019050919050565b6000620005136020836200058a565b91507f4f776e61626c653a2063616c6c6572206973206e6f7420746865206f776e65726000830152602082019050919050565b6000602082019050818103600083015262000561816200049c565b9050919050565b60006020820190508181036000830152620005838162000504565b9050919050565b600082825260208201905092915050565b60006002820490506001821680620005b457607f821691505b60208210811415620005cb57620005ca620005d1565b5b50919050565b7f4e487b7100000000000000000000000000000000000000000000000000000000600052602260045260246000fd5b611eb180620006106000396000f3fe6080604052600436106101235760003560e01c8063715018a6116100a0578063a457c2d711610064578063a457c2d7146103f6578063a9059cbb14610433578063dd62ed3e14610470578063f2fde38b146104ad578063fccc2813146104d65761012a565b8063715018a614610321578063893d20e8146103385780638da5cb5b146103635780638fa02b671461038e57806395d89b41146103cb5761012a565b8063313ce567116100e7578063313ce56714610228578063395093511461025357806340c10f1914610290578063570ca735146102b957806370a08231146102e45761012a565b806306fdde031461012f578063095ea7b31461015a57806318160ddd1461019757806323b872dd146101c257806329605e77146101ff5761012a565b3661012a57005b600080fd5b34801561013b57600080fd5b50610144610501565b6040516101519190611ac7565b60405180910390f35b34801561016657600080fd5b50610181600480360381019061017c919061166d565b610593565b60405161018e9190611aac565b60405180910390f35b3480156101a357600080fd5b506101ac6105b1565b6040516101b99190611c09565b60405180910390f35b3480156101ce57600080fd5b506101e960048036038101906101e4919061161e565b6105bb565b6040516101f69190611aac565b60405180910390f35b34801561020b57600080fd5b50610226600480360381019061022191906115b9565b610694565b005b34801561023457600080fd5b5061023d610854565b60405161024a9190611c24565b60405180910390f35b34801561025f57600080fd5b5061027a6004803603810190610275919061166d565b61086b565b6040516102879190611aac565b60405180910390f35b34801561029c57600080fd5b506102b760048036038101906102b2919061166d565b61091e565b005b3480156102c557600080fd5b506102ce6109a8565b6040516102db9190611a91565b60405180910390f35b3480156102f057600080fd5b5061030b600480360381019061030691906115b9565b6109d2565b6040516103189190611c09565b60405180910390f35b34801561032d57600080fd5b50610336610a1b565b005b34801561034457600080fd5b5061034d610aa3565b60405161035a9190611a91565b60405180910390f35b34801561036f57600080fd5b50610378610ab2565b6040516103859190611a91565b60405180910390f35b34801561039a57600080fd5b506103b560048036038101906103b091906116a9565b610adb565b6040516103c29190611aac565b60405180910390f35b3480156103d757600080fd5b506103e0610b73565b6040516103ed9190611ac7565b60405180910390f35b34801561040257600080fd5b5061041d6004803603810190610418919061166d565b610c05565b60405161042a9190611aac565b60405180910390f35b34801561043f57600080fd5b5061045a6004803603810190610455919061166d565b610cd2565b6040516104679190611aac565b60405180910390f35b34801561047c57600080fd5b50610497600480360381019061049291906115e2565b610cf0565b6040516104a49190611c09565b60405180910390f35b3480156104b957600080fd5b506104d460048036038101906104cf91906115b9565b610d77565b005b3480156104e257600080fd5b506104eb610e6f565b6040516104f89190611a91565b60405180910390f35b60606004805461051090611d39565b80601f016020809104026020016040519081016040528092919081815260200182805461053c90611d39565b80156105895780601f1061055e57610100808354040283529160200191610589565b820191906000526020600020905b81548152906001019060200180831161056c57829003601f168201915b5050505050905090565b60006105a76105a0610e75565b8484610e7d565b6001905092915050565b6000600354905090565b60006105c8848484611048565b610689846105d4610e75565b61068485604051806060016040528060288152602001611e0960289139600260008b73ffffffffffffffffffffffffffffffffffffffff1673ffffffffffffffffffffffffffffffffffffffff168152602001908152602001600020600061063a610e75565b73ffffffffffffffffffffffffffffffffffffffff1673ffffffffffffffffffffffffffffffffffffffff168152602001908152602001600020546112d69092919063ffffffff16565b610e7d565b600190509392505050565b3373ffffffffffffffffffffffffffffffffffffffff16600660019054906101000a900473ffffffffffffffffffffffffffffffffffffffff1673ffffffffffffffffffffffffffffffffffffffff1614610724576040517f08c379a000000000000000000000000000000000000000000000000000000000815260040161071b90611ba9565b60405180910390fd5b600073ffffffffffffffffffffffffffffffffffffffff168173ffffffffffffffffffffffffffffffffffffffff161415610794576040517f08c379a000000000000000000000000000000000000000000000000000000000815260040161078b90611b49565b60405180910390fd5b8073ffffffffffffffffffffffffffffffffffffffff16600660019054906101000a900473ffffffffffffffffffffffffffffffffffffffff1673ffffffffffffffffffffffffffffffffffffffff167f74da04524d50c64947f5dd5381ef1a4dca5cba8ed1d816243f9e48aa0b5617ed60405160405180910390a380600660016101000a81548173ffffffffffffffffffffffffffffffffffffffff021916908373ffffffffffffffffffffffffffffffffffffffff16021790555050565b6000600660009054906101000a900460ff16905090565b6000610914610878610e75565b8461090f8560026000610889610e75565b73ffffffffffffffffffffffffffffffffffffffff1673ffffffffffffffffffffffffffffffffffffffff16815260200190815260200160002060008973ffffffffffffffffffffffffffffffffffffffff1673ffffffffffffffffffffffffffffffffffffffff1681526020019081526020016000205461132b90919063ffffffff16565b610e7d565b6001905092915050565b610926610e75565b73ffffffffffffffffffffffffffffffffffffffff16610944610ab2565b73ffffffffffffffffffffffffffffffffffffffff161461099a576040517f08c379a000000000000000000000000000000000000000000000000000000000815260040161099190611b89565b60405180910390fd5b6109a48282611341565b5050565b6000600660019054906101000a900473ffffffffffffffffffffffffffffffffffffffff16905090565b6000600160008373ffffffffffffffffffffffffffffffffffffffff1673ffffffffffffffffffffffffffffffffffffffff168152602001908152602001600020549050919050565b610a23610e75565b73ffffffffffffffffffffffffffffffffffffffff16610a41610ab2565b73ffffffffffffffffffffffffffffffffffffffff1614610a97576040517f08c379a0000000000000000000000000000000000000000000000000000000008152600401610a8e90611b89565b60405180910390fd5b610aa160006114cb565b565b6000610aad610ab2565b905090565b60008060009054906101000a900473ffffffffffffffffffffffffffffffffffffffff16905090565b6000610ae5610e75565b73ffffffffffffffffffffffffffffffffffffffff16610b03610ab2565b73ffffffffffffffffffffffffffffffffffffffff1614610b59576040517f08c379a0000000000000000000000000000000000000000000000000000000008152600401610b5090611b89565b60405180910390fd5b610b6a610b64610e75565b83611341565b60019050919050565b606060058054610b8290611d39565b80601f0160208091040260200160405190810160405280929190818152602001828054610bae90611d39565b8015610bfb5780601f10610bd057610100808354040283529160200191610bfb565b820191906000526020600020905b815481529060010190602001808311610bde57829003601f168201915b5050505050905090565b6000610cc8610c12610e75565b84610cc385604051806060016040528060258152602001611e576025913960026000610c3c610e75565b73ffffffffffffffffffffffffffffffffffffffff1673ffffffffffffffffffffffffffffffffffffffff16815260200190815260200160002060008a73ffffffffffffffffffffffffffffffffffffffff1673ffffffffffffffffffffffffffffffffffffffff168152602001908152602001600020546112d69092919063ffffffff16565b610e7d565b6001905092915050565b6000610ce6610cdf610e75565b8484611048565b6001905092915050565b6000600260008473ffffffffffffffffffffffffffffffffffffffff1673ffffffffffffffffffffffffffffffffffffffff16815260200190815260200160002060008373ffffffffffffffffffffffffffffffffffffffff1673ffffffffffffffffffffffffffffffffffffffff16815260200190815260200160002054905092915050565b610d7f610e75565b73ffffffffffffffffffffffffffffffffffffffff16610d9d610ab2565b73ffffffffffffffffffffffffffffffffffffffff1614610df3576040517f08c379a0000000000000000000000000000000000000000000000000000000008152600401610dea90611b89565b60405180910390fd5b600073ffffffffffffffffffffffffffffffffffffffff168173ffffffffffffffffffffffffffffffffffffffff161415610e63576040517f08c379a0000000000000000000000000000000000000000000000000000000008152600401610e5a90611b29565b60405180910390fd5b610e6c816114cb565b50565b61dead81565b600033905090565b600073ffffffffffffffffffffffffffffffffffffffff168373ffffffffffffffffffffffffffffffffffffffff161415610eed576040517f08c379a0000000000000000000000000000000000000000000000000000000008152600401610ee490611b09565b60405180910390fd5b600073ffffffffffffffffffffffffffffffffffffffff168273ffffffffffffffffffffffffffffffffffffffff161415610f5d576040517f08c379a0000000000000000000000000000000000000000000000000000000008152600401610f5490611be9565b60405180910390fd5b80600260008573ffffffffffffffffffffffffffffffffffffffff1673ffffffffffffffffffffffffffffffffffffffff16815260200190815260200160002060008473ffffffffffffffffffffffffffffffffffffffff1673ffffffffffffffffffffffffffffffffffffffff168152602001908152602001600020819055508173ffffffffffffffffffffffffffffffffffffffff168373ffffffffffffffffffffffffffffffffffffffff167f8c5be1e5ebec7d5bd14f71427d1e84f3dd0314c0f7b2291e5b200ac8c7c3b9258360405161103b9190611c09565b60405180910390a3505050565b600073ffffffffffffffffffffffffffffffffffffffff168373ffffffffffffffffffffffffffffffffffffffff1614156110b8576040517f08c379a00000000000000000000000000000000000000000000000000000000081526004016110af90611ae9565b60405180910390fd5b600073ffffffffffffffffffffffffffffffffffffffff168273ffffffffffffffffffffffffffffffffffffffff161415611128576040517f08c379a000000000000000000000000000000000000000000000000000000000815260040161111f90611bc9565b60405180910390fd5b61119481604051806060016040528060268152602001611e3160269139600160008773ffffffffffffffffffffffffffffffffffffffff1673ffffffffffffffffffffffffffffffffffffffff168152602001908152602001600020546112d69092919063ffffffff16565b600160008573ffffffffffffffffffffffffffffffffffffffff1673ffffffffffffffffffffffffffffffffffffffff1681526020019081526020016000208190555061122981600160008573ffffffffffffffffffffffffffffffffffffffff1673ffffffffffffffffffffffffffffffffffffffff1681526020019081526020016000205461132b90919063ffffffff16565b600160008473ffffffffffffffffffffffffffffffffffffffff1673ffffffffffffffffffffffffffffffffffffffff168152602001908152602001600020819055508173ffffffffffffffffffffffffffffffffffffffff168373ffffffffffffffffffffffffffffffffffffffff167fddf252ad1be2c89b69c2b068fc378daa952ba7f163c4a11628f55a4df523b3ef836040516112c99190611c09565b60405180910390a3505050565b600083831115829061131e576040517f08c379a00000000000000000000000000000000000000000000000000000000081526004016113159190611ac7565b60405180910390fd5b5082840390509392505050565b600081836113399190611c5b565b905092915050565b600073ffffffffffffffffffffffffffffffffffffffff168273ffffffffffffffffffffffffffffffffffffffff1614156113b1576040517f08c379a00000000000000000000000000000000000000000000000000000000081526004016113a890611b69565b60405180910390fd5b6113c68160035461132b90919063ffffffff16565b60038190555061141e81600160008573ffffffffffffffffffffffffffffffffffffffff1673ffffffffffffffffffffffffffffffffffffffff1681526020019081526020016000205461132b90919063ffffffff16565b600160008473ffffffffffffffffffffffffffffffffffffffff1673ffffffffffffffffffffffffffffffffffffffff168152602001908152602001600020819055508173ffffffffffffffffffffffffffffffffffffffff16600073ffffffffffffffffffffffffffffffffffffffff167fddf252ad1be2c89b69c2b068fc378daa952ba7f163c4a11628f55a4df523b3ef836040516114bf9190611c09565b60405180910390a35050565b60008060009054906101000a900473ffffffffffffffffffffffffffffffffffffffff169050816000806101000a81548173ffffffffffffffffffffffffffffffffffffffff021916908373ffffffffffffffffffffffffffffffffffffffff1602179055508173ffffffffffffffffffffffffffffffffffffffff168173ffffffffffffffffffffffffffffffffffffffff167f8be0079c531659141344cd1fd0a4f28419497f9722a3daafe3b4186f6b6457e060405160405180910390a35050565b60008135905061159e81611dda565b92915050565b6000813590506115b381611df1565b92915050565b6000602082840312156115cb57600080fd5b60006115d98482850161158f565b91505092915050565b600080604083850312156115f557600080fd5b60006116038582860161158f565b92505060206116148582860161158f565b9150509250929050565b60008060006060848603121561163357600080fd5b60006116418682870161158f565b93505060206116528682870161158f565b9250506040611663868287016115a4565b9150509250925092565b6000806040838503121561168057600080fd5b600061168e8582860161158f565b925050602061169f858286016115a4565b9150509250929050565b6000602082840312156116bb57600080fd5b60006116c9848285016115a4565b91505092915050565b6116db81611cb1565b82525050565b6116ea81611cc3565b82525050565b60006116fb82611c3f565b6117058185611c4a565b9350611715818560208601611d06565b61171e81611dc9565b840191505092915050565b6000611736602583611c4a565b91507f42455032303a207472616e736665722066726f6d20746865207a65726f20616460008301527f64726573730000000000000000000000000000000000000000000000000000006020830152604082019050919050565b600061179c602483611c4a565b91507f42455032303a20617070726f76652066726f6d20746865207a65726f2061646460008301527f72657373000000000000000000000000000000000000000000000000000000006020830152604082019050919050565b6000611802602683611c4a565b91507f4f776e61626c653a206e6577206f776e657220697320746865207a65726f206160008301527f64647265737300000000000000000000000000000000000000000000000000006020830152604082019050919050565b6000611868603883611c4a565b91507f544d474f3a3a7472616e736665724f70657261746f723a206e6577206f70657260008301527f61746f7220697320746865207a65726f206164647265737300000000000000006020830152604082019050919050565b60006118ce601f83611c4a565b91507f42455032303a206d696e7420746f20746865207a65726f2061646472657373006000830152602082019050919050565b600061190e602083611c4a565b91507f4f776e61626c653a2063616c6c6572206973206e6f7420746865206f776e65726000830152602082019050919050565b600061194e602483611c4a565b91507f6f70657261746f723a2063616c6c6572206973206e6f7420746865206f70657260008301527f61746f72000000000000000000000000000000000000000000000000000000006020830152604082019050919050565b60006119b4602383611c4a565b91507f42455032303a207472616e7366657220746f20746865207a65726f206164647260008301527f65737300000000000000000000000000000000000000000000000000000000006020830152604082019050919050565b6000611a1a602283611c4a565b91507f42455032303a20617070726f766520746f20746865207a65726f20616464726560008301527f73730000000000000000000000000000000000000000000000000000000000006020830152604082019050919050565b611a7c81611cef565b82525050565b611a8b81611cf9565b82525050565b6000602082019050611aa660008301846116d2565b92915050565b6000602082019050611ac160008301846116e1565b92915050565b60006020820190508181036000830152611ae181846116f0565b905092915050565b60006020820190508181036000830152611b0281611729565b9050919050565b60006020820190508181036000830152611b228161178f565b9050919050565b60006020820190508181036000830152611b42816117f5565b9050919050565b60006020820190508181036000830152611b628161185b565b9050919050565b60006020820190508181036000830152611b82816118c1565b9050919050565b60006020820190508181036000830152611ba281611901565b9050919050565b60006020820190508181036000830152611bc281611941565b9050919050565b60006020820190508181036000830152611be2816119a7565b9050919050565b60006020820190508181036000830152611c0281611a0d565b9050919050565b6000602082019050611c1e6000830184611a73565b92915050565b6000602082019050611c396000830184611a82565b92915050565b600081519050919050565b600082825260208201905092915050565b6000611c6682611cef565b9150611c7183611cef565b9250827fffffffffffffffffffffffffffffffffffffffffffffffffffffffffffffffff03821115611ca657611ca5611d6b565b5b828201905092915050565b6000611cbc82611ccf565b9050919050565b60008115159050919050565b600073ffffffffffffffffffffffffffffffffffffffff82169050919050565b6000819050919050565b600060ff82169050919050565b60005b83811015611d24578082015181840152602081019050611d09565b83811115611d33576000848401525b50505050565b60006002820490506001821680611d5157607f821691505b60208210811415611d6557611d64611d9a565b5b50919050565b7f4e487b7100000000000000000000000000000000000000000000000000000000600052601160045260246000fd5b7f4e487b7100000000000000000000000000000000000000000000000000000000600052602260045260246000fd5b6000601f19601f8301169050919050565b611de381611cb1565b8114611dee57600080fd5b50565b611dfa81611cef565b8114611e0557600080fd5b5056fe42455032303a207472616e7366657220616d6f756e74206578636565647320616c6c6f77616e636542455032303a207472616e7366657220616d6f756e7420657863656564732062616c616e636542455032303a2064656372656173656420616c6c6f77616e63652062656c6f77207a65726fa26469706673582212201c49be3d784772d1fe7dad62aeca6d37412eec1d0300e0cffc3b3313ee4b420a64736f6c63430008000033",
  "immutableReferences": {},
  "source": "pragma solidity 0.8.0;\n\nimport \"./libs/BEP20.sol\";\n\ncontract Token is BEP20(\"Farm Token\", \"TOKEN\") {\n    using SafeMath for uint256;\n\n    uint256 constant MAX_CAP_SUPPLY = 10000 ether;\n    // Burn address\n    address public constant BURN_ADDRESS =\n        0x000000000000000000000000000000000000dEaD;\n    // The operator can only update the transfer tax rate\n    address private _operator;\n    // Events\n    event OperatorTransferred(\n        address indexed previousOperator,\n        address indexed newOperator\n    );\n    modifier onlyOperator() {\n        require(\n            _operator == msg.sender,\n            \"operator: caller is not the operator\"\n        );\n        _;\n    }\n\n    /**\n     * @notice Constructs the Token contract.\n     */\n    constructor() {\n        _operator = _msgSender();\n        transferOwnership(_msgSender());\n        emit OperatorTransferred(address(0), _operator);\n    }\n\n    /// @notice Creates `_amount` token to `_to`. Must only be called by the owner (MasterChef).\n    function mint(address _to, uint256 _amount) public onlyOwner {\n        _mint(_to, _amount);\n    }\n\n    // To receive native coin from swapRouter when swapping\n    receive() external payable {}\n\n    /**\n     * @dev Returns the address of the current operator.\n     */\n    function operator() public view returns (address) {\n        return _operator;\n    }\n\n    /**\n     * @dev Transfers operator of the contract to a new account (`newOperator`).\n     * Can only be called by the current operator.\n     */\n    function transferOperator(address newOperator) public onlyOperator {\n        require(\n            newOperator != address(0),\n            \"TMGO::transferOperator: new operator is the zero address\"\n        );\n        emit OperatorTransferred(_operator, newOperator);\n        _operator = newOperator;\n    }\n\n    function safe32(uint256 n, string memory errorMessage)\n        internal\n        pure\n        returns (uint32)\n    {\n        require(n < 2**32, errorMessage);\n        return uint32(n);\n    }\n\n    function getChainId() internal view returns (uint256) {\n        uint256 chainId;\n        assembly {\n            chainId := chainid()\n        }\n        return chainId;\n    }\n}\n",
  "sourcePath": "/Users/fungp/mock-farm-copy/farm/contracts/Token.sol",
  "compiler": {
    "name": "solc",
    "version": "0.8.0+commit.c7dfd78e.Emscripten.clang"
  },
  "schemaVersion": "3.4.4",
  "updatedAt": "2022-02-06T17:05:34.432Z",
  "devdoc": {
    "kind": "dev",
    "methods": {
      "I(uint256)": {
        "details": "Creates `amount` tokens and assigns them to `msg.sender`, increasing the total supply. Requirements - `msg.sender` must be the token owner"
      },
      "allowance(address,address)": {
        "details": "See {BEP20-allowance}."
      },
      "approve(address,uint256)": {
        "details": "See {BEP20-approve}. Requirements: - `spender` cannot be the zero address."
      },
      "balanceOf(address)": {
        "details": "See {BEP20-balanceOf}."
      },
      "decimals()": {
        "details": "Returns the token decimals."
      },
      "decreaseAllowance(address,uint256)": {
        "details": "Atomically decreases the allowance granted to `spender` by the caller. This is an alternative to {approve} that can be used as a mitigation for problems described in {BEP20-approve}. Emits an {Approval} event indicating the updated allowance. Requirements: - `spender` cannot be the zero address. - `spender` must have allowance for the caller of at least `subtractedValue`."
      },
      "getOwner()": {
        "details": "Returns the bep token owner."
      },
      "increaseAllowance(address,uint256)": {
        "details": "Atomically increases the allowance granted to `spender` by the caller. This is an alternative to {approve} that can be used as a mitigation for problems described in {BEP20-approve}. Emits an {Approval} event indicating the updated allowance. Requirements: - `spender` cannot be the zero address."
      },
      "name()": {
        "details": "Returns the token name."
      },
      "operator()": {
        "details": "Returns the address of the current operator."
      },
      "owner()": {
        "details": "Returns the address of the current owner."
      },
      "renounceOwnership()": {
        "details": "Leaves the contract without owner. It will not be possible to call `onlyOwner` functions anymore. Can only be called by the current owner. NOTE: Renouncing ownership will leave the contract without an owner, thereby removing any functionality that is only available to the owner."
      },
      "symbol()": {
        "details": "Returns the token symbol."
      },
      "totalSupply()": {
        "details": "See {BEP20-totalSupply}."
      },
      "transfer(address,uint256)": {
        "details": "See {BEP20-transfer}. Requirements: - `recipient` cannot be the zero address. - the caller must have a balance of at least `amount`."
      },
      "transferFrom(address,address,uint256)": {
        "details": "See {BEP20-transferFrom}. Emits an {Approval} event indicating the updated allowance. This is not required by the EIP. See the note at the beginning of {BEP20}; Requirements: - `sender` and `recipient` cannot be the zero address. - `sender` must have a balance of at least `amount`. - the caller must have allowance for `sender`'s tokens of at least `amount`."
      },
      "transferOperator(address)": {
        "details": "Transfers operator of the contract to a new account (`newOperator`). Can only be called by the current operator."
      },
      "transferOwnership(address)": {
        "details": "Transfers ownership of the contract to a new account (`newOwner`). Can only be called by the current owner."
      }
    },
    "version": 1
  },
  "userdoc": {
    "kind": "user",
    "methods": {
      "constructor": {
        "notice": "Constructs the Token contract."
      },
      "mint(address,uint256)": {
        "notice": "Creates `_amount` token to `_to`. Must only be called by the owner (MasterChef)."
      }
    },
    "version": 1
  }
}